:020000040800F2
:10000000784D002081020008DD300008F528000846
:10001000D52E0008A9060008453800080000000099
:10002000000000000000000000000000C101000806
:10003000BD0A0008000000001D0200083131000860
:100040009B0200089B0200089B0200089B0200081C
:100050009B0200089B0200089B0200089B0200080C
:10006000F90A00089B020008FF0A00089B0200082A
:10007000050A00089B0200089B0200089B0200087A
:10008000110A00089B0200089B0200089B0200085E
:10009000AD0600089B0200089B020008050B000843
:1000A0009B0200089B0200089B0200089B020008BC
:1000B0009B020008253200089B0200089B020008F2
:1000C0009B0200089B0200089B0200089B0200089C
:1000D0009B020008413700082D3800089B020008E9
:1000E0009B0200089B0200089B0200089B0200087C
:1000F0009B0200089B0200089B0200089B0200086C
:100100009B0200089B0200089B0200089B0200085B
:100110009B0200089B020008313200089B02000885
:100120009B0200081D0A0008290A00089B0200081B
:10013000350A00089B0200089B0200089B02000889
:10014000B90600089B0200089B0200089B020008F9
:100150009B0200089B0200089B0200083938000837
:100160009B0200089B0200089B0200089B020008FB
:100170009B0200089B0200089B0200080000000090
:100180009B0200089B0200089B0200089B020008DB
:100190009B0200089B0200089B0200089B020008CB
:1001A00000000000000000009B020008DFF80CD0F7
:1001B00000F06EF900480047CF380008784D002065
:1001C0002C4B19680868B0E8F04F80F30988BFF33A
:1001D0006F8F4FF0000080F311887047000000001F
:1001E00008480068006880F308884FF0000080F33A
:1001F000148862B661B6BFF34F8FBFF36F8F00DF15
:1002000000BF00BF08ED00E0DFF80C00016841F41A
:1002100070010160704700BF88ED00E0EFF30980D6
:10022000BFF36F8F134B1A681EF0100F08BF20ED3D
:10023000108A20E9F04F106009B44FF0500080F3AD
:100240001188BFF34F8FBFF36F8F04F047F84FF063
:10025000000080F3118809BC19680868B0E8F04F05
:100260001EF0100F08BFB0EC108A80F30988BFF3AE
:100270006F8F704754000020EFF305807047000037
:100280000648804706480047FEE7FEE7FEE7FEE730
:10029000FEE7FEE7FEE7FEE7FEE7FEE7D1310008F6
:1002A000AD010008DFED3C0A20EE200AFDEEC00A99
:1002B000B5EEC00A10EE902AF1EE10FA38BF521EC9
:1002C00000EE902ADFF8D8C0B0EE084AF8EEE00A57
:1002D00030EE600ADFED310A60EE200ABCEEE00A83
:1002E00010EE102AC2F3080200EE102A02F1800379
:1002F0000CEB8202B8EE400AC3F308030CEB830355
:1003000030EEC00AD2ED000A93ED002A93ED011AF7
:10031000F1EE601AD2ED010A71EE422AF1EE603A76
:10032000DFED200A31EEA31A21EE203AB0EE001ADA
:1003300041EE213A01EE623A62EE842A43EEE02A6F
:1003400040EE032A60EE222A41EEA02A00EE222A85
:1003500081ED002AD3ED001A93ED013AD2ED002A87
:1003600092ED012A71EE833A01EE213A32EE622AD1
:1003700063EEA03A41EE423A22EE042A03EE602AEE
:1003800000EE232A20EE021A01EEA01A40EE012A06
:10039000C0ED002A70470000610B363B00000044AE
:1003A00030470008DB0F493C2DE9F05F054600208F
:1003B00092469B4688460646814640241BE02846D6
:1003C00041464746224600F053F853465A46C01A63
:1003D000914110D311461846224600F03AF82D1AE2
:1003E00067EB01084F4622460120002100F031F85A
:1003F00017EB00094E41201EA4F10104DFDC484642
:1004000031462A464346BDE8F09F40EA01039B0778
:1004100003D009E008C9121F08C0042AFAD203E079
:1004200011F8013B00F8013B521EF9D27047D2B2DD
:1004300001E000F8012B491EFBD270470022F6E7CD
:1004400010B513460A4604461946FFF7F0FF20464A
:1004500010BD202A04DB203A00FA02F10020704788
:100460009140C2F1200320FA03F3194390407047F2
:10047000202A04DB203A21FA02F00021704721FAF9
:1004800002F3D040C2F12002914008431946704760
:10049000064C074D06E0E06840F0010394E80700D1
:1004A00098471034AC42F6D3FFF784FE5C4F000847
:1004B0007C4F0008D0ED000AF4EEC00AF1EE10FA0D
:1004C00001DD80ED000AD0ED000AB1EE400AF4EE45
:1004D000C00AF1EE10FA01D280ED000A7047000068
:1004E000464910B54A6822F440324A604A68436877
:1004F0001A434A6001684A6822F480724A600168BF
:100500004A68036942EA03224A6001684A6822F0A5
:1005100040724A6001684A6883681A434A60016809
:100520008A6822F400628A6001688A68C3681A4394
:100530008A60816A6FF07062D14201688A6822F035
:1005400070628A6001688A680CD0836A1A438A6084
:1005500001688A6822F040528A6001688A68C36A2A
:100560001A4301E022F040528A6001688A6822F052
:1005700002028A6001688A68037E42EA43028A6056
:1005800090F82010002901684A680FD042F40062F8
:100590004A6001684A6822F460424A6001684A6819
:1005A000174C436A04EB43331A4301E022F4006220
:1005B0004A600168CA6A22F47002CA620168CA6AA3
:1005C000838B104C04EB03531A43CA6201688A6898
:1005D00022F400728A6001688A6890F8303042EA3A
:1005E00043228A6001688A6822F480628A60016816
:1005F0008A68406942EA8020886010BD002301407B
:1006000000E0FFFF0000F0FF0C494A42884202DA96
:1006100000F50050FAE7904202DDA0F50050F5E742
:1006200000EE100ADFED060AB8EEC00A20EE200A3E
:10063000DFED040A20EE200A7047000000F0FFFF03
:100640000000B4430000003910B502F03FFA02F098
:10065000D5F902F08BF902F0ADF902F01BF902F0C6
:1006600031F90F4800F050FF0E4800F04DFF042113
:100670000B4800F073FB04210A4800F06FFB02F006
:10068000B7FB02F0D3FB02F0EDFB02F007FC02F037
:100690003BF902F001FBBDE8104002F085BB000011
:1006A0004C06002074060020FEE70000014800F020
:1006B000C6BC00004C060020014800F0C0BC000091
:1006C0007406002001884ABA06498A82428852BAD2
:1006D0000A80828852BA4A80034982790A81C079A5
:1006E00048817047F2030020E60300200188054A94
:1006F00049BA118141884ABA03494A800079087091
:1007000070470000680500201800002030B5164D25
:10071000144829880478A1F5806101EB8103698878
:100720001248A1F5806101EB81015A424942012C36
:1007300003D0022C08D0032C12D100EE102AB8EE00
:10074000C00A80ED010A05E000EE103AB8EEC00ADA
:1007500080ED020A00EE101AB8EEC00A80ED000A21
:1007600030BD000018000020F2030020C40100206A
:100770002DED028B84B0C82003F0E9F803F0D2FE1F
:10078000634D03900020287000F0F8F8DFF884A192
:10079000DFF884B19FED618ADFF88491DFF884810E
:1007A000A9F1100707F12006BAF80800A0F6746056
:1007B00000EE100AB8EEC00A85ED020ABDEEC00ACE
:1007C00010EE100AFFF720FF85ED030A9BF80000EA
:1007D000012804D0022864D0032825D163E0B5EEB7
:1007E000C00AF1EE10FA02DDF0EE400A01E0F1EE8F
:1007F000400A10EE900A4C49884203DA484689EDD7
:10080000028A07E0F0EE480A484803F0DDF848465F
:1008100089ED020A90ED021AD0ED000A99ED010A65
:100820003F48103803F07EF85FF0000407EB8400C7
:10083000C4EB0411D0ED000A38F9210000EE100AD3
:1008400006EBC410B8EEC00A03F0BEF8641C042C1A
:10085000ECDB2878012856D096ED740ABDEEC00A6C
:1008600010EE100A00B2009096ED540ABDEEC00AD8
:1008700010EE100A96ED340A03B2BDEEC00A10EE77
:10088000100A96ED140A02B2BDEEC00A10EE100A6C
:1008900001B2274800F050F8052103A803F05EF8E4
:1008A00082E74846B6E7DFED230A4C46C9ED020A67
:1008B00002A901A8FFF7F6FCD4ED010A9DED020A9A
:1008C000DDED011A94ED001A20EE802A60EEA10AF7
:1008D00001EE612A41EE000ABDEEC22ABDEEE00A39
:1008E00012EE100A01B210EE100A698000B200EE9A
:1008F000100AA88094ED021AF8EEC00A00EE101A51
:10090000B8EEC00A8CE70A4800F0DAF8C4E7000045
:1009100000000020680500201800002000000000F2
:10092000C40100200804002033335340B4000020E9
:100930007406002000803B4570B586B008240494FE
:100940000024039402940A9D4FF4007400940A4C0E
:100950000E0A26706170110AA170E270190A2171E5
:100960006371290AA171E571A4F108032246694661
:1009700000F006FA06B070BD240000202DE9F04119
:1009800000232DED028B1A469FED1A8A03211A4887
:10099000B0EE481AF0EE480AB0EE480A02F0A0FBAA
:1009A00015480023B0EE481AF0EE480AB0EE480AA7
:1009B0001A460321803002F093FB104D9FED108A00
:1009C000002441F2883643F6982700BFF0EE480A2B
:1009D00005EBC410B0EE601AB7EE080A33463A468B
:1009E000032102F07DFB641C042CEFDBBDEC028BC9
:1009F000BDE8F08100000000B4000020D401002018
:100A0000CDCCCC3D014800F0C5BD0000C80B002096
:100A1000014800F0BFBD0000680B0020014800F055
:100A2000B9BD0000280C0020014800F0B3BD000053
:100A3000080B0020014800F0ADBD0000EC050020CF
:100A400001681823CAB2103AB2FBF3F2054B6FF3F8
:100A50000901032A9B5CC36500D9091D816508460D
:100A6000704700001047000810B5014600208B6950
:100A70008A6A4FF0C07453B1B3F5005F15D072B1FC
:100A8000012A0CD0022A0AD0032A09D104E01AB1A3
:100A9000012A06D0022A03D1C96AC90100D5012062
:100AA00010BDC96AA142FAD010BD002AF7D0012AB0
:100AB000F2D0022AF3D0032AF3D010BD7047000011
:100AC00000B587B008214FF4007204910092002114
:100AD000084A03910291117051709170D170117197
:100AE00051719171D171A2F10803694600F048F982
:100AF00007B000BD24000020042000F087BE1020B5
:100B000000F084BE802000F081BE704778B50024DC
:100B1000009490F83C20012A19D0012280F83C2052
:100B20000A6807230568092A13D9EE680A3A02EB16
:100B3000420293409E43EE600B788A680A3B03EBC7
:100B400043039A400368DD682A43DA6010E002201C
:100B500078BD2E6902EB420293409E432E610B78D2
:100B60008A6803EB43039A4003681D692A431A61AC
:100B70004A681F23072A13D205686E6B521E02EBC8
:100B8000820293409E436E630A8893B20A79521E92
:100B900002EB820293400268556B2B43536327E0BC
:100BA00005680D2A12D22E6BD21F02EB82029340EF
:100BB0009E432E630B790A88DB1F92B203EB8303FB
:100BC0009A4003681D6B2A431A6311E0EE6A0D3ADE
:100BD00002EB820293409E43EE620B790A880D3B42
:100BE00092B203EB83039A400368DD6A2A43DA6218
:100BF0001B4B0568194A9D420AD10D68122D07D179
:100C0000556825F400055560556845F48005556024
:100C100005689D421DD1134D0B68AB4201D0112BCD
:100C200017D1536823F480035360536843F40003DF
:100C300053600968A9420CD10B490C4A0968B1FB01
:100C4000F2F101EB8101490000E0491E0091002909
:100C5000FBD180F83C40002078BD0000002301401B
:100C600000200140120000105000002040420F0000
:100C700070B504004FF0000503D0206C002610B1C1
:100C800007E0012070BD204600F01CF8666484F87F
:100C90003C60206CC00610D4206C20F4885040F0DA
:100CA000020020642046FFF71BFC6664206C20F0E5
:100CB000020040F00100206400E0012584F83C605F
:100CC000284670BD70B586B0064614216846FFF709
:100CD000B5FB1D493068884233D11C4800250168A6
:100CE00041F480710160006800F48070059017483D
:100CF0001438016841F0020101600068694600F0A3
:100D000002000590022000900320CDE90105104863
:100D100000F088FD104C0F48C4E900050015A560DF
:100D2000C4E90350800060618000C4E906052562C3
:100D30002046656200F0FEFC08B1FFF7E6FEB463F2
:100D4000A66306B070BD0000002001404438024098
:100D50000004024070640240EC05002090F820205E
:100D6000012A07D0022A05D0416A41F4802141625C
:100D700001207047006842690A43426100207047C1
:100D8000F0B590F820500468A468012D05D0022D1C
:100D900003D0416A41F4802153E014F0406F01D147
:100DA000E5004BD5C4F30164022C03D9416A41F438
:100DB000000146E00125A5401D608D684FF4C07319
:100DC0009DB1CE6835434E6845EAC605066803EB1B
:100DD0000417F5514FF4C275076805EB04150E6949
:100DE0007E51097D012905D009E00E88CD6845EACC
:100DF0004655EBE701684E5946F480764E5111791D
:100E0000D2F805504FF4C67641EA0525016806EB95
:100E100004168D511178D2F801204FF4C47541EABF
:100E20000221026805EB04155151006803EB04111F
:100E3000425842F0010242500020F0BD416A41F4A4
:100E4000001141620120F0BD10B590F82020012A68
:100E500007D0022A05D0416A41F480214162012075
:100E600010BD3B48D0F8002242F00102C0F8002239
:100E7000D0F8002222F47C52C0F80022D0F80022E0
:100E80004B6A42EA0322C0F800220A7D02F01F03E7
:100E900001229A40D0F81C329343C0F81C32CB692F
:100EA000B3B9D0F80C329343C0F80C328C894B683C
:100EB00064F31F434C6900EBC404C4F840320C894E
:100EC0000B6864F31F434C6900EBC404C4F844325C
:100ED000CB69012B16D1D0F80C321343C0F80C3279
:100EE0000C884B6864F31F434C6900EBC404C4F8DE
:100EF00040320C89CB6864F31F434C6900EBC40497
:100F0000C4F844328B69002BD0F804320ED013435E
:100F1000C0F804320B69002BD0F8143208D0134308
:100F2000C0F81432096A012904D008E09343EFE7BE
:100F30009343F5E7D0F81C121143C0F81C12D0F807
:100F4000001221F00101C0F80012002010BD0000C5
:100F500000640040704730B590F82040012C05D067
:100F6000022C03D0416A41F480215DE0046800292D
:100F700055D02469A40754D04FF4D874056804EB05
:100F800001142D5915F00405956005682D594ED0B2
:100F9000ED08556005682C59C4F34004D4604FF443
:100FA000DA74056804EB01142D5905F00F0515617D
:100FB00005682D59C5F30725956105682C59240C42
:100FC00054614FF4DC72046802EB0112A4581C70E7
:100FD0000468A458240A5C700468A458240C9C700B
:100FE0000468A258120EDA704FF4DE72046802EB45
:100FF0000112A4581C710468A458240A5C71046886
:10100000A458240C9C710468A258120EDA7100686E
:1010100081B1016941F020010161002030BDE46827
:10102000A8E7416A41F400114162012030BD6D0D15
:101030001560AFE7C16841F02001C160EDE72DE91F
:10104000F05F0546006800244669D0F80490876880
:10105000D0F80CB0D0F810A0D0F81880F10748D024
:10106000F90714D001218160B80703D5284600F0A4
:1010700078FA0CE0780702D54FF4006407E03807EF
:1010800002D54FF4805402E0284600F069FAF805D2
:1010900016D529684FF480708860B80503D52846B6
:1010A00000F061FA0CE0780502D544F4005407E042
:1010B000380502D544F4804402E0284600F052FA94
:1010C000F80316D529684FF480308860B80303D53B
:1010D000284600F04AFA0CE0780302D544F40044B4
:1010E00007E0380302D544F4803402E0284600F0DB
:1010F0003BFA300707D55FEACB6004D5296810209A
:1011000044F40074C86070074FF0080707D55FEA21
:101110000B7004D52868C760284600F099F9B0071D
:1011200006D52868C068800702D0284600F0E8F994
:10113000700607D55FEACA6004D52968102044F418
:1011400080640861B00607D55FEA0A7004D5286894
:101150000761284600F0D5F9F00606D52868006931
:10116000800702D0284600F0CDF9B00308D55FEA29
:10117000C96005D5296810204860284600F0C3F9E9
:10118000F00307D55FEA097004D528684760284650
:1011900000F0ECF9300446D55FEA497040D5F0051F
:1011A00004D55FEAC87001D044F00104B00504D54D
:1011B0005FEA887001D544F00204700504D55FEA47
:1011C000487001D544F00404300529D518F0700F9B
:1011D00026D008F07000402815D006DC102809D071
:1011E00020280AD0302816D10AE050280ED06028D6
:1011F00011D10EE044F008040DE044F010040AE0C0
:1012000044F0200407E044F0400404E044F080048B
:1012100001E044F480742868816921F070018161E3
:10122000296804204860002C05D0686A2043686261
:101230002846FFF78FFEBDE8F09F70B5040003D08D
:1012400094F8200010B104E0012070BD204600F0A9
:1012500081F82068016821F00201016000F0CEFBF6
:101260000546052604E000F0C9FB401B0A2811D8FA
:10127000206840688007F6D42068016841F00101C9
:10128000016000F0BBFB05460BE000F0B7FB401B24
:101290000A2806D9606A40F40030606284F8206051
:1012A000D2E720684068C007EFD0207E0128206880
:1012B00001683DD021F080010160607E0128206836
:1012C000016838D021F040010160A07E012820682B
:1012D000016833D021F020010160E07E0128206800
:1012E00001682ED041F010010160207F01282068A4
:1012F000016829D021F008010160607F0128206881
:10130000016824D021F004010160D4E902010843FE
:10131000D4E90412114308436168491E0843216857
:10132000C86100206062012084F82000002070BDA8
:1013300041F08001C0E741F04001C5E741F02001E4
:10134000CAE721F01001CFE741F00801D4E741F0EE
:101350000401D9E7F0B587B0044614216846FFF7C9
:101360006DF8364B3648DFF8D0E01968D4F800C085
:10137000334A03250226092710300024491CF4456E
:1013800022D11960012907D1016841F00071016083
:10139000006800F000700590106840F008001060D0
:1013A0001068CDE9005600F00800CDE904706946E8
:1013B0002448CDE9024500F035FA00220521142029
:1013C00000F08EFB142033E0DFF87CE0F44531D1EF
:1013D000D0F800C04CF0806CC0F800C0D0F800C05D
:1013E00001290CF0806CCDF814C0196007D1016898
:1013F00041F000710160006800F000700590106815
:1014000040F002001060106802AB00F0020005908E
:101410004FF44050CDE9000683E8B00069460B4820
:1014200000F000FA00220521402000F059FB402086
:1014300000F048FB07B0F0BD00640040340000201D
:1014400030380240000C02400068004000040240B6
:1014500070B5044600682249224D884217D1224BBC
:101460002A4600212148FFF776FD2868B0F5887FDD
:1014700003D0B0F5907F06D102E01B48FFF722F9B8
:101480001948FFF733F904211848FFF767FC18499A
:101490002068884223D1144B124A00211548FFF7D7
:1014A0005AFD28781449401EC0B20870C0EB0011E4
:1014B000124800EB8100816A4A1C8262322903D8FB
:1014C000094902F0FFF904E033218162064902F084
:1014D000D9F9BDE8704004210648FFF73FBC70BD54
:1014E00000640040F80400202C0000204C0600207E
:1014F000006800407406002040000020080400201E
:10150000704770477047704770B5044690F82000E8
:10151000012804D0606A40F40020606218E00220D4
:1015200084F820002068016821F00101016000F0CA
:1015300065FA05460EE000BF00F060FA401B0A287D
:1015400008D9606A40F400306062052084F8200009
:10155000012070BD20684068C007EDD1606270BD99
:10156000704770477047704770477047704790F8F2
:101570003510022903D080214165012070470521E3
:1015800080F835100068016821F001010160002039
:10159000704700002DE9F84304464FF00009CDF8EC
:1015A000009063484FF41651A56D0068B0FBF1F749
:1015B0002E6894F85C10082000FA01F131420FD037
:1015C00021680A6852070BD50A6822F004020A60F3
:1015D00094F85C108840A860606D40F00100606580
:1015E00094F85C104FF0010808FA01F0304208D07E
:1015F00021684969090604D5A860606D40F00200C1
:10160000606594F85C1004208840304208D021685E
:101610000968890704D5A860606D40F00400606522
:1016200094F85C1010208840304218D02168096876
:10163000090714D5A86020680168490304D500682B
:10164000000308D5A16C07E00168C90503D401684F
:1016500021F008010160216C09B12046884794F807
:101660005C1020208840304231D021680968C906CA
:101670002DD5A86094F8350005282068016806D0AB
:10168000490347D5006800031DD4616C1CE021F0BC
:10169000160101602068416921F080014161206CE0
:1016A00008B9A06C20B12068016821F00801016030
:1016B00094F85C103F208840A86084F8349084F847
:1016C0003580216D1FE0E16B09B120468847606DD0
:1016D00000282BD0606DC00714D0052084F8350099
:1016E0002068016821F0010101600098401C009011
:1016F000B84203D820680068C007F6D184F8349057
:1017000084F83580E16C002910D001B02046BDE896
:10171000F04308470168C905D5D4016821F01001DC
:10172000016084F8349084F83580CCE7BDE8F88314
:10173000500000202DE9F041044600F05FF9064614
:101740005CB1002584F83450022084F8350020680C
:10175000016821F0010101600DE00120BDE8F08188
:1017600000F04CF9801B052805D920206065032076
:1017700084F83500F2E720680068C007F0D12268DD
:10178000116820480140D4E901031843D4E9033625
:101790003343184363691843A3691843E369184343
:1017A000236A18430843616A042903D1D4E90B135F
:1017B00019430843106020684069666A20F00701F9
:1017C00030460E43012704280CD1A06A0643E06A84
:1017D00040B12046FFF748F920B14020606584F809
:1017E0003570BAE7206846612046FFF729F994F87A
:1017F0005C203F2191408160656584F83570002050
:10180000ACE700003F8010F070470000044910B5BD
:101810000A68024202D00860FFF7F6FF10BD000020
:10182000143C01402DE9F84FDFF890B100224FF051
:1018300001084FF0030A4FF00F090BF1040E00BF2F
:101840000B6808FA02F42340A3426ED14D68022DC2
:1018500001D0122D0ED1D50800EB850CDCF82050FC
:101860005607F70E09FA07F6B5430E69BE402E4338
:10187000CCF82060066855000F790AFA05FC07F0DD
:10188000030726EA0C06AF40374307604E68012E77
:1018900005D0022E03D0112E01D0122E0ED1876852
:1018A000CE6827EA0C07AE403E4386604668A643F2
:1018B0000C79C4F30014944034434460C4688E68C7
:1018C00024EA0C04AE402643C6604C68E4006FD5A1
:1018D0003B4C256845F480452560246822F00305CB
:1018E00004F480440094374C2E19D6F80848950724
:1018F0002F0F09FA07F5AC43334DA84201D100255B
:101900002EE0324DA84201D1012529E0304DA842F8
:1019100001D1022524E02F4DA84201D103251FE06B
:101920002D4DA84202D104251AE041E02B4DA842DA
:1019300001D1052514E02A4DA84201D106250FE06A
:10194000284DA84201D107250AE0274DA84201D120
:10195000082505E0254DA84201D1092500E00A250A
:10196000BD402543C6F80858DBF800405D464E6888
:101970009C43F60300D51C432C60DEF800407546FE
:101980004E689C43B60300D51C432C600B4D0835B4
:101990002C684E689C43F60200D51C432C60074D12
:1019A0000C352C684E689C43B60200D51C432C6055
:1019B000521C102AFFF444AFBDE8F88F003C0140F0
:1019C0004438024000300140000002400004024060
:1019D00000080240000C02400010024000140240C7
:1019E00000180240001C0240002002400024024077
:1019F0000AB1816170470904FBE700000148806873
:101A000070470000440000200248816802781144B9
:101A100081607047440000200B4810B5016841F414
:101A200000710160016841F480610160016841F466
:101A300080710160032000F073F80F2000F006F8B9
:101A400000F024F8002010BD003C024070B50D4DA0
:101A500004464FF47A712878B1FBF0F00A4909681E
:101A6000B1FBF0F000F05CFB48B9102C07D200226B
:101A70002146501E00F034F800206C6070BD01203B
:101A800070BD000044000020500000200C4882B0CF
:101A9000016841F480410160006800F480400090DA
:101AA0000748001F016841F0805101600068002272
:101AB00000F0805000900F21901E02B000F010B88E
:101AC00044380240002809DB00F01F020121914048
:101AD0004009800000F1E020C0F8001170470000CC
:101AE000F0B40E4B1B680C46C3F30223C3F1070589
:101AF000042D00D90425191D072901D2002300E077
:101B0000DB1E012606FA05F1491E214099409E4040
:101B1000761E16403143F0BC01F095BE0CED00E09E
:101B2000064900F0070208684FF6FF03184040EA34
:101B30000220034A10430860704700000CED00E0EB
:101B40000000FA052DE9F0470E46050065D0DFF8E4
:101B50001481D8F80000F7B200F00F00B04207D2AD
:101B600088F80070D8F8000000F00F00B04254D19F
:101B700028683D4C810712D5400703D5206840F402
:101B8000E05020602878000703D5206840F46040CA
:101B900020602068A96820F0F000084320602878C1
:101BA000C0072DD0304968680839012812D00228B2
:101BB00013D0032811D00968890700292DDA21687C
:101BC00021F0030101432160FFF718FF814641F234
:101BD000883A0EE009688903EFE709688901ECE7B4
:101BE000FFF70CFFA0EB0901514502D90320BDE826
:101BF000F0872068696800F00C00B0EB810FEFD12E
:101C0000D8F80010404601F00F01B14207D9077023
:101C1000006800F00F00B04201D00120E7E728780B
:101C2000400705D52068E96820F4E05008432060AB
:101C30002878000706D52068296920F4604040EA2A
:101C4000C100206000F036F82168084AC1F3031192
:101C5000515CC840064908600F20FFF7F7FE0020DE
:101C6000C5E70000003C0240083802401847000861
:101C7000500000200448054900680968044AC1F37F
:101C80008221515CC8407047500000200838024053
:101C9000284700080448054900680968044AC1F358
:101CA0004231515CC8407047500000200838024063
:101CB00028470008154810B5006810F00C021448B9
:101CC00013D01449042A0FD0082A0ED10F4C241F18
:101CD0002268236802F03F025B0207D52068C0F348
:101CE0008810A0FB010106E0084610BD2168C1F381
:101CF0008811A1FB00010023FEF756FB2168C1F308
:101D00000141491C4900B0FBF1F010BD0838024008
:101D10000024F400001BB7002DE9F84F050076D031
:101D20002878DFF8F8B2BE4CC00749D0DBF80010C5
:101D30005846C1F38101012908D00068C0F3810031
:101D400002280AD1201D0068400206D520688003C1
:101D500036D568680028E2D032E06868B0F5803F88
:101D600010D0B0F5A02F206810D020F48030206073
:101D7000206820F4802020606868A0B1FFF73EFE54
:101D800006460CE0206840F48030F4E740F4802000
:101D90002060F7E7FFF732FE801B642873D82068C5
:101DA0008003F7D50CE0FFF729FE064605E000BFEB
:101DB000FFF724FE801B6428F0D820688003F7D446
:101DC0002878DFF8608280074FF000093ED5DBF805
:101DD0000010584611F00C0F09D00068C0F38100C4
:101DE00002280BD18D48001F0068400206D42068ED
:101DF000800715D5E868012809D111E0E868B8B175
:101E00000120C8F80000FFF7F9FD064605E002E1F1
:101E1000FFF7F4FD801B0228C0D820688007F7D5A3
:101E20002068296920F0F80040EAC10020600DE038
:101E3000C8F80090FFF7E2FD064604E0FFF7DEFD7C
:101E4000801B02281FD820688007F7D42878000755
:101E500022D5724E744869696C3671B101210160F6
:101E6000FFF7CCFD074604E0FFF7C8FDC01B0228C2
:101E700009D830688007F7D50EE0C0F80090FFF76A
:101E8000BDFD074605E083E0FFF7B8FDC01B022853
:101E90007ED830688007F7D42878400768D5DFF807
:101EA0007CA100270AF1380ADAF80000C0000BD440
:101EB000DAF8001041F08051CAF80010DAF800009A
:101EC000012700F080500090584E3068C00510D4B3
:101ED000306840F480703060FFF790FD009005E0BE
:101EE000FFF78CFD0099401A022851D83068C005D0
:101EF000F6D54A4EA868683601280FD00528306804
:101F000010D020F001003060306820F00400306014
:101F1000A868B8B1FFF772FD00900FE0306840F09C
:101F20000100F4E740F004003060F7E7FFF766FDDA
:101F30000099411A41F28830814264D830688007A4
:101F4000F4D50EE0FFF75AFD009007E0FFF756FDCD
:101F50000099411A41F28830814254D83068800794
:101F6000F4D42FB1DAF8001021F08051CAF8001033
:101F7000A869C0B3DBF80010C1F3810102294AD07F
:101F80000228484607D0C8F86000FFF737FD00E098
:101F900039E005463AE04746C8F86000FFF72EFDF5
:101FA000064604E0FFF72AFD801B02282BD8206894
:101FB0008001F7D4D5E907010843A96A1C4A4908FA
:101FC00002EB01416A6A41EA8211084395F82C103C
:101FD00040EA01611148001F016001203866FFF7E7
:101FE0000DFD054605E014E0FFF708FD401B022843
:101FF00009D820688001F7D50BE000BFFFF7FEFC91
:10200000401B022802D90320BDE8F88F2068800118
:10201000F4D40020F8E70120F6E700000838024079
:102020000038024000004742800E474200700040E6
:102030000000FFFF70B5040005D00025A56294F8EC
:10204000510010B106E0012070BD84F850502046C8
:1020500000F030F8022084F851002068016821F077
:1020600040010160D4E901010843D4E9031211439E
:10207000084361690843218B01F400710843E16959
:102080000843216A0843A16A084321680860A069DF
:10209000042101EA1040616A084321684860206811
:1020A000C16921F40061C1616565012084F85100B6
:1020B000002070BD10B586B0044614216846FEF7B6
:1020C000BDF914492068884221D1134800210268D3
:1020D00042F480120260006800F4801005900E48FF
:1020E0001438026842F020020260006800F020000C
:1020F00005904FF4707000900220CDE9010103209B
:1021000003900520049069460448FFF78BFB06B056
:1021100010BD00000050014044380240001402404D
:1021200010B5401EB0F1807F01D3012010BD4FF0EB
:10213000E02460610F21601701F085FB0020A061A1
:1021400007202061002010BD7047704770B590F8DF
:102150003C20012A19D0012400F83C4F0222427091
:1021600050F83C3C5A689D6822F070060A6849683D
:10217000324325F0800529435A6050F83C2C916089
:10218000447000210170084670BD022070BD10B57A
:10219000040003D094F83D0010B107E0012010BD09
:1021A000002084F83C00204600F00CF8022084F85F
:1021B0003D00211D206801F041F8012084F83D0018
:1021C000002010BD08B51A4A01681A4891420ED184
:1021D000016841F0020101600068002200F0020085
:1021E000009005211D20FFF77BFC1D201CE0124AFA
:1021F000914208D1016841F008010160006800F0D7
:102200000800009008BD0D4A9142FBD1016841F0E1
:10221000100101600068002200F01000009005210C
:102220003620FFF75DFC3620BDE80840FFF74ABCCA
:102230000004004040380240000C00400010004004
:1022400070B5044690F83C00012817D0012584F8A9
:102250003C50022084F83D002068826822F077021A
:1022600022F47F4282600868502830D00DDC20289C
:102270004DD005DC98B310283BD148E0022070BD5A
:10228000302844D0402834D139E0602828D0702844
:1022900006D0B0F5805F2CD0B0F5005F29D10AE000
:1022A000CB68D1E90121206801F02CF82068816811
:1022B00041F0770109E0CB68D1E90121206801F004
:1022C00021F82068816841F48041816011E0CA688A
:1022D0004968206801F028F85021206807E016E0DE
:1022E000CA684968206801F030F86021206801F070
:1022F00013F884F83D50002084F83C0070BDCA6893
:102300004968206801F010F840212068EFE7226852
:1023100001461046EBE7704770B504460068016956
:102320004FF00005C943890715D4C168C94389071F
:1023300011D4E91E0161012020772068806980079F
:10234000204602D0FFF7E7FF04E000F098F82046AF
:1023500000F096F8257720680169C943490717D42A
:10236000C168C943490713D46FF004010161022019
:1023700020772068806910F4407F204602D0FFF764
:10238000CAFF04E000F07BF8204600F079F82577DA
:1023900020680169C943090716D4C168C943090700
:1023A00012D46FF008010161042020772068C06911
:1023B0008007204602D0FFF7AEFF04E000F05FF890
:1023C000204600F05DF8257720680169C943C906F9
:1023D00017D4C168C943C90613D46FF01001016155
:1023E000082020772068C06910F4407F204602D082
:1023F000FFF791FF04E000F042F8204600F040F8BB
:10240000257720680169C943C90708D1C168C94354
:10241000C90704D1891E0161204600F032F8206806
:102420000169C943090609D4C168C943090605D42D
:102430006FF0800101612046FFF786FE2068016988
:10244000C943490609D4C168C943490605D46FF098
:1024500040010161204600F015F820680169C94378
:1024600089060BD4C168C943890607D46FF02001DF
:1024700001612046BDE87040FFF767BE70BD704740
:10248000704770477047704770B50268044610681F
:10249000D168536910F00F0F51D003F0010501F41A
:1024A000907635435DD0C20705D0CA0503D5E26BEF
:1024B00042F00102E263420705D5DA0703D0E26B7E
:1024C00042F00202E263820705D5DA0703D0E26B2D
:1024D00042F00402E263020705D5DA0703D0E26B9B
:1024E00042F00802E263E26B002A34D0800604D591
:1024F000880602D5204600F050FF20684069E16B55
:10250000C0F3801001F008010143204624D000F000
:1025100036FF2068416949061AD5416921F040011A
:102520004161606BA0B11B490165606BFFF71FF84B
:10253000002810D0606B016DBDE87040084783062D
:102540000FD58B060DD52046BDE8704000F025BFA5
:102550002046FFF798FF70BDFFF795FF0020E0636E
:1025600070BD030606D50B0604D52046BDE87040B5
:1025700001F0B4B84006F3D54806F1D5D16820463D
:1025800021F04001D160202184F8391000F081F958
:1025900070BD00006F33000870B5040004D094F8DB
:1025A0003900002510B106E0012070BD84F83850D4
:1025B000204600F023F8242084F839002068C16800
:1025C00021F40051C160204600F032FF206801690B
:1025D00021F4904101612068416921F02A014161A3
:1025E0002068C16841F40051C160E563202084F88F
:1025F000390084F83A00002070BD00002DE9F04F4A
:1026000087B0054614216846FDF718FF9548DFF8A6
:1026100050821438D5F800C00024DFF848E20221C7
:1026200001220323061587154FF007094FF0006AB2
:10263000C4453ED1DEF8008048F01008CEF8008096
:10264000DEF800C00CF0100CCDF814C0D0F800C0BB
:102650004CF0020CC0F800C0006800F002000590C9
:10266000C0208DE80F0269467F48FFF7DBF8DFF8EE
:1026700000827E494046C8F80010C0E901A4C0E9C4
:102680000346C8F81440C0E90647C8F82040C8F817
:102690002440FFF74FF808B1FEF737FAC5F8348049
:1026A000002205212520C8F83850FFF719FA252007
:1026B00047E0DFF8C081DFF8ACB1C445ABF1040BF3
:1026C00044D1DBF8008048F40038CBF80080DBF818
:1026D00000C00CF4003CCDF814C0D0F800C04CF0A1
:1026E000080CC0F800C0006800F0080005906020E9
:1026F0008DE80F0269466048FFF794F8DFF87081B3
:102700005E4908F160084046C8F80010C0E901A41D
:10271000C0E90346C8F81440C0E90647C8F820409D
:10272000C8F82440FFF706F808B1FEF7EEF9C5F83F
:102730003480002205212620C8F83850FFF7D0F950
:102740002620FFF7BFF907B0BDE8F08FDFF8308132
:10275000C4453CD1DBF8008048F48028CBF80080E9
:10276000DBF800C00CF4802CCDF814C0D0F800C009
:102770004CF0080CC0F800C0006800F0080005909C
:102780004FF440708DE80F0269463B48FFF74AF866
:10279000DFF8DC80394908F1C00860394046C8F8E4
:1027A0000010C0E901A4C0E90346C8F81440C0E91C
:1027B0000647C8F82040C8F82440FEF7BBFF08B120
:1027C000FEF7A3F9C5F83480C8F83850BBE7DFF846
:1027D000B480C445B7D1DEF8008048F02008CEF8B8
:1027E0000080DEF800C00CF0200CCDF814C0D0F84A
:1027F00000C04CF0400CC0F800C0006800F0400081
:1028000005904FF484408DE80F000820049069463D
:102810001D48FFF707F81549DFF870801839404662
:10282000C8F800108905C0E90114C0E90346C8F8DA
:102830001440C0E90647C8F82040C8F82440FEF715
:1028400079FF08B1FEF761F9C5F83480002205214F
:102850004720C8F83850FFF743F9472071E70000D8
:10286000001001404438024000040240406402402D
:10287000080B002000440040000C02408860024029
:10288000004800400014014000180240280C0020BD
:102890007047704700B58BB0002001210190029075
:1028A0000891CDE90601049000900E210390099152
:1028B000059069460248FEF7C7FA0BB000BD00005C
:1028C0004C06002000B58BB0002001210190029041
:1028D0000891CDE906010490009003900E20099024
:1028E0000F20059069460248FEF7AEFA0BB000BD16
:1028F00074060020FEE7F7EE001A71EEC11A21EE11
:10290000800A00EE810A70477FB5002415480094C4
:10291000019402941249039401604FF48031C0E99C
:10292000011401250461057680F820400E49C0E9B4
:102930000A14C561C46080F830504561FEF798F90B
:1029400008B1FEF7E2F80920CDE9000569460294D6
:102950000448FEF7DBF8002801D0FEF7D6F87FBD6B
:1029600000200140A40500200100000F104810B510
:102970000E4901600621416000214FF480328160E0
:10298000C0E903124FF4401242610176417681762C
:102990000122C27601774177FEF74FFC002803D071
:1029A000BDE81040FEF7B1B810BD00000064004063
:1029B0004C060020104810B50E4901600621416008
:1029C00000214FF480328160C0E903124FF44012BD
:1029D00042610176417681760122C27601774177A4
:1029E000FEF72BFC002803D0BDE81040FEF78DB8A1
:1029F00010BD000000680040740600201D4808B5A6
:102A0000016841F480010160016801F480010091D6
:102A1000016841F4001101600068002200F4001018
:102A2000009005210C20FFF75BF80C20FFF74AF817
:102A3000002205211020FFF753F81020FFF742F87D
:102A4000002205213920FFF74BF83920FFF73AF82B
:102A5000002205213A20FFF743F83A20FFF732F829
:102A6000002205213C20FFF73BF8BDE808403C2050
:102A7000FFF728B83038024010B596B01C22114933
:102A80006846FDF7C2FC0021684600F073FF0E4C5B
:102A90000C491C2220601C3107A8FDF7B6FC002160
:102AA00007A800F067FF074960601C2238310EA8B4
:102AB000FDF7ABFC00210EA800F05CFF606016B0D3
:102AC00010BD0000BC460008380000202DE9F04F82
:102AD00087B014216846FDF7B1FC66480024016800
:102AE00041F010010160016801F0100105910168D9
:102AF00041F040010160016801F040010591016869
:102B000041F001010160016801F0010105910168D6
:102B100041F002010160016801F0020105910168C4
:102B200041F008010160016801F0080105910168A8
:102B300041F480710160016801F4807105910168C0
:102B400041F080010160016801F080010591016898
:102B500041F0200101600068002200F02000059093
:102B60003C214548FEF744FF4FF4FF7A00225146CE
:102B70004248FEF73DFF4FF4006B002259464048A3
:102B8000FEF736FF00224FF480413E48FEF730FF4B
:102B90000326022702AACDE900674FF0080882E861
:102BA000500169463648FEF73DFEDFF8DC90842090
:102BB000CDE90009694602943448FEF733FE3C2013
:102BC00000900125CDE9015469462B480394FEF796
:102BD00029FECDF800A0CDE90154694627480394A9
:102BE000FEF720FE0420CDE900046946284802943F
:102BF000FEF718FE1020CDE9000969460294254829
:102C0000FEF710FEF001CDE9000702AA694682E84E
:102C100050011B48FEF706FECDF800B0CDE9015487
:102C2000694617480394FEF7FDFDA8030090CDE91F
:102C30000154694613480394FEF7F4FD0022052170
:102C40000820FEF74DFF0820FEF73CFF002205217B
:102C50000A20FEF745FF0A20FEF734FF0022052177
:102C60001720FEF73DFF1720FEF72CFF07B0BDE849
:102C7000F08F000030380240001C02400018024073
:102C80000010024000140240000011100020024019
:102C90000004024000000240104810B50E490160D7
:102CA0004FF48271416000218160C1604FF4007275
:102CB0000161C0E905123022C0E907214162816249
:102CC0000A21C162FFF7B6F9002803D0BDE8104021
:102CD000FDF71BBF10BD000000500140F0080020B0
:102CE00010B586B000241748009401940294039410
:102CF00004941349059401605321C0E90114312162
:102D0000C0E9031480218161FFF741FA08B1FDF7A2
:102D1000FCFE4FF48050009069460A48FFF790FA95
:102D200008B1FDF7F2FE049404A906480594FFF7E4
:102D30000DFA002801D0FDF7E8FE06B010BD000036
:102D4000000400404809002010B586B00024154852
:102D50000094019402940394049411490594C0E9E9
:102D600000148460C46004618461FFF710FA08B144
:102D7000FDF7CBFE4FF48050009069460948FFF7FD
:102D80005FFA08B1FDF7C1FE049404A90548059453
:102D9000FFF7DCF9002801D0FDF7B7FE06B010BD43
:102DA000000C0040880900201CB500240F48009446
:102DB0000D490194016040F24731C0E901146321DB
:102DC000C16080218161FFF7E2F908B1FDF79DFE46
:102DD0000094694605480194FFF7B8F9002801D02E
:102DE000FDF793FE1CBD000000100040C809002044
:102DF0000C4810B50A4901600B494160002181600F
:102E00000C22C160C0E904128161C161FFF7C4FBFB
:102E1000002803D0BDE81040FDF777BE10BD0000CC
:102E200000100140080A0020A08601000C4810B5DF
:102E30000A4901604FF4E1314160002181600C22B8
:102E4000C160C0E904128161C161FFF7A5FB0028E0
:102E500003D0BDE81040FDF758BE10BD004400404F
:102E6000480A00200C4810B50A4901604FF4E131CE
:102E70004160002181600C22C160C0E904128161BF
:102E8000C161FFF789FB002803D0BDE81040FDF7C2
:102E90003CBE10BD00480040880A00200C4810B518
:102EA0000A4901604FF4E1314160002181600C2248
:102EB000C160C0E904128161C161FFF76DFB0028A8
:102EC00003D0BDE81040FDF720BE10BD0014014046
:102ED000C80A0020FEE7000030B57848818A7848AB
:102EE000CA060BD541F2883202804EF67842428003
:102EF00040F6B83282804FF2484214E04A0507D5C6
:102F00004FF4FA720280534243808280C3800BE008
:102F10004FF47A6202804FF2600242804FF4FA620C
:102F200082804FF63002C2806648674A674BD0ED18
:102F3000000ACC07F3EE0E1A9FED651A9FED650AA5
:102F400002D070EEE10A20E08C0702D570EEA10AF3
:102F50001BE010EE904A944205D210EE904A9C423B
:102F600001DA80ED001AD0ED000AF5EEC00AF1EEAC
:102F700010FA03DD70EEC00AC0ED000AF5EEC00ADB
:102F8000F1EE10FA03D270EE800AC0ED000A4D4D4A
:102F9000514CB3EE0E2AD5ED010A247870EE822A48
:102FA00030EEC22A012C06D0022C2BD0032C07D1E4
:102FB0000C0708D47AE04C0703D500BFC0ED012A06
:102FC00030BD090702D580ED012A30BD10EE901A00
:102FD000914205D210EE901A994201DA80ED011A61
:102FE000D0ED010AF5EEC00AF1EE10FA61DC00BF87
:102FF000F5EEC00AF1EE10FAE7D230EE800A80ED6D
:10300000010A30BD0C0702D580ED012A22E04C07F1
:1030100002D5C0ED012A1DE010EE904A944205D27F
:1030200010EE904A9C4201DA80ED011AD0ED010ABF
:10303000F5EEC00AF1EE10FA03DD70EEC00AC0ED45
:10304000010AF5EEC00AF1EE10FA03D270EE800A22
:10305000C0ED010A1B4D4C06D5ED020A02D530EE3B
:10306000E10A20E0090602D530EEA10A1BE010EECD
:10307000901A914205D210EE901A994201DA80ED31
:10308000021AD0ED020AF5EEC00AF1EE10FA03DDE5
:1030900070EEC00AC0ED020AF5EEC00AF1EE10FAB9
:1030A000AFD230EE800A80ED020A30BD49078DD5DF
:1030B00084E770EEC00AC0ED010A99E7F203002030
:1030C00010000020C4010020000096C300009643B9
:1030D0000000000000009643180000207047000028
:1030E00030B4034C8467034CC46730BC00F05ABD55
:1030F000A53B0008B33B000808B501F013FA094CE2
:1031000000906089012802D0022805D102E0FDF775
:10311000FDFA01E0FFF7E0FE0521684600F01EFC25
:10312000EFE70000E6030020012000F010FCFBE7C1
:1031300010B5FEF769FC01F0E7F9012803D0BDE8FE
:10314000104001F073B910BD30B593B0302168461E
:10315000FDF774F914210CA8FDF770F91A48002541
:10316000016841F080510160006800F080501190CA
:103170001648016841F4404101600068022400F4EF
:103180004040119001200090000401908001CDE9A1
:1031900006400C2008904FF4A870CDE909040420E3
:1031A0000B906846FEF7B8FD0CA90F2081E83100AE
:1031B0004FF4A0500F90E002109005210CA8FEF7EC
:1031C000C1FC13B030BD0000403802400070004028
:1031D0001048016841F4700101600F48016841F036
:1031E000010101600C4A00210832116002680B4B9A
:1031F0001A400260031D0A4A1A60026822F4802203
:10320000026005480C3001600249580680390860A8
:103210007047000088ED00E000380240FFFFF6FE36
:10322000103000240148FFF777B80000480900205B
:103230000148FFF771B80000C8090020F0B5026826
:10324000254C264D264E274F274B4FF0804CA04251
:1032500009D0604507D0A84205D0B04203D0B8429B
:1032600001D0984204D122F0700E4A6842EA0E0260
:10327000A0421BD0604519D0A84217D0B04215D04B
:10328000B84213D0984211D0184DA8420ED0184D14
:10329000A8420BD0174DA84208D0174DA84205D020
:1032A000164DA84202D0164DA84203D122F4407513
:1032B000CA682A434D6922F080022A4302608A6864
:1032C000C2620A688262A04201D0984201D10969B3
:1032D000016301214161F0BD000001400004004094
:1032E00000080040000C0040000401400040014084
:1032F000004401400048014000180040001C00400C
:103300000020004010B5846842EA032224F47F4480
:103310000A432243826010BD826822F070020A4391
:1033200042F007018160704710B5036A046A24F017
:1033300001040462846924F0F00444EA021423F0D6
:103340000A020A438461026210BD10B5036A23F0C9
:10335000100303628369046A23F4704343EA023270
:1033600024F0A00343EA01118261016210BD10B58F
:10337000806B0021C185C184FFF785F810BD01680D
:10338000CA6822F49072CA6001684A6922F0010298
:103390004A61202180F83A10704710B590F83A1031
:1033A000222901D0022010BD8168B1F5805F11D0C3
:1033B0000169002901681FD0496801F07F03816A13
:1033C0004A1C82620B70C18D491E0904090CC1851B
:1033D00018D02BE00269816A002A0268526805D081
:1033E000D2B20A80816A491C8162ECE7C2F308020A
:1033F0000A80816A891CF7E74A68816A4B1C8362EC
:103400000A70E0E70168CA6822F02002CA60016819
:10341000CA6822F48072CA6001684A6922F0010217
:103420004A61202180F83A10FFF732FA002010BDDF
:103430002DE9F041044600680169E26821F4405139
:10344000114301612169A068E26908436169114380
:1034500022680843D16849F20C6399430143D16063
:1034600020684169A26921F4407111434161E26918
:103470006425B2F5004F9748974922684FF032080B
:103480003FD08A4201D082427CD1FEF703FC00EBA0
:10349000C00101EB001061688900B0FBF1F6FEF796
:1034A000F9FB00EBC00101EB001061688900B0FB83
:1034B000F1F0B0FBF5F06FF01801484306EB800126
:1034C00008EB0110B0FBF5F000F0F006FEF7E2FBB0
:1034D00000EBC00101EB001061688900B0FBF1F066
:1034E000B0FBF5F006EB0016FEF7D4FB00EBC001D5
:1034F00001EB001061688900B0FBF1F7FEF7CAFB31
:10350000D2E08A4201D082423DD1FEF7C3FB00EBFC
:10351000C00101EB001061684900B0FBF1F0B0FBA5
:10352000F5F00601FEF7B6FB00EBC00101EB001061
:1035300061684900B0FBF1F7FEF7ACFB00EBC0019E
:1035400001EB001061684900B0FBF1F0B0FBF5F051
:103550006FF01801484307EB800108EBC100B0FB96
:10356000F5F000F0F80006EB4006FEF793FB00EBE9
:10357000C00101EB001061684900B0FBF1F7FEF7F4
:1035800089FB3CE055E0FEF775FB00EBC00101EB69
:10359000001061684900B0FBF1F0B0FBF5F00601E6
:1035A000FEF768FB00EBC00101EB00106168490009
:1035B000B0FBF1F7FEF75EFB00EBC00101EB001082
:1035C00061684900B0FBF1F0B0FBF5F06FF0180155
:1035D000484307EB800108EBC100B0FBF5F000F0B9
:1035E000F80006EB4006FEF745FB00EBC00101EBDF
:1035F000001061684900B0FBF1F7FEF73BFB00EB00
:10360000C00101EB001061684900B0FBF1F0B0FBB4
:10361000F5F06FF01801484307EB800108EBC1009B
:10362000B0FBF5F000F00700216830448860BDE889
:10363000F081FEF71FFB00EBC00101EB0010616899
:103640008900B0FBF1F6FEF715FB00EBC00101EBC2
:10365000001061688900B0FBF1F0B0FBF5F06FF08D
:103660001801484306EB800108EB0110B0FBF5F0B0
:1036700000F0F006FEF7FEFA00EBC00101EB0010CF
:1036800061688900B0FBF1F0B0FBF5F006EB0016C5
:10369000FEF7F0FA00EBC00101EB00106168890051
:1036A000B0FBF1F7FEF7E6FA00EBC00101EB00100A
:1036B00061688900B0FBF1F0B0FBF5F06FF0180124
:1036C000484307EB800108EB0110B0FBF5F000F078
:1036D0000F00A9E7001401400010014090F83910D4
:1036E000212901D0022070478168B1F5805F016A0D
:1036F0000BD04A1C0262026809785160C18C491ED5
:103700000904090CC1840ED017E009880268C1F3CE
:103710000801516001690029016A02D0491C016257
:10372000ECE7891CFBE70168CA6822F08002CA60E6
:103730000068C16841F04001C1600020704700008E
:1037400078B4364A116808684969C0F3001001F07E
:103750001001E8B3E1B3324B1868016821F00101B0
:1037600001603049186888420AD02F49884207D042
:103770002C496031884203D02B496031884201D105
:10378000202122E0274C1834E114A0421DD0264C01
:103790001834A04219D0234C7834A04215D0224CC2
:1037A0007834A04211D01F4C89023034A0420CD092
:1037B0001D4C3034A04208D01A4C9034A04204D0A2
:1037C000194C9034A04200D08901174C483400E0D5
:1037D00020E0A04202D9144C241F05E0114CA8346B
:1037E000A04203D9104C083C216008E00D4D0D4C5F
:1037F0004835103CA84201D9E16000E0A1601221E7
:1038000041601868016841F00101016010680168B9
:103810004068009078BC0148FEF736BE080A0020D8
:10382000080B002010600240106402400148FEF7BF
:103830002BBE0000480A00200148FEF725BE00000C
:10384000C80A0020FEE70907090E002804DB00F182
:10385000E02080F80014704700F00F0000F1E02035
:1038600080F8141D704702E008C8121F08C1002A22
:10387000FAD170477047002001E001C1121F002AF1
:10388000FBD1704710B5038943810A8852BA02817F
:103890004C88D31A64BA04808C88B3F5805F64BA0C
:1038A000448089798171016901DD491E03E013F5C6
:1038B000805F01DA491C016102EB41318289891A7A
:1038C000416110BD098849BA018181817047FEF7C5
:1038D000A3F8FFF739FCFFF7F9F8FFF78FF8FFF7C8
:1038E00013F8FFF743F8FFF765F8FFF7D5F9FFF78F
:1038F000F7F9FFF729FAFFF757FAFFF779FAFFF719
:1039000095FAFFF7AFFAFFF7C9FAFCF79DFEFFF74C
:10391000B3F800F02AF8FEE701460020842900D021
:10392000C81C704770EEC01A30EE200A31EE812AB2
:1039300071EE400A30EE010A80ED002AC0ED010A66
:1039400071EE610AC0ED020A80ED030A704710B5FE
:1039500000B9012000F018FC002010BD10B501B91D
:10396000012100F037FC002010BD10B500F078FCFC
:10397000002010BD7FB50D4604464169B0F908002E
:1039800081B1A16971B1FFF7C7FFD4E905128DE8D4
:103990000700D4E900102B46226900F08AFD03904D
:1039A00004B070BDFFF7B8FF03A9CDE90001208A7C
:1039B0002B4682B2D4E9001000F04EFD012801D060
:1039C0000020EDE70398EBE700B530EEC01A80ED7C
:1039D000080AC0ED050A80ED0B1AD0ED191A014650
:1039E0009FED6E2A30EEC00AF5EEC01AB1EE400A25
:1039F000F1EE10FA0ED0B5EEC01AF1EE10FA02DDBB
:103A0000F0EE410A01E0F0EE400AF4EEE10AF1EED8
:103A100010FA12DCD1ED1A0AF5EEC00AF1EE10FA36
:103A20000ED0B5EEC01AF1EE10FA01DDB0EE410A8B
:103A3000B4EEE00AF1EE10FA02D2B0EE420A00BD96
:103A4000CA6E01F13400032A02D0042A43D084E074
:103A500091ED000A20EE010A81ED0C0A91ED0D0AAC
:103A6000D1ED010A00EE810A81ED0D0A91ED0A0AFD
:103A7000D1ED020A31EE400A60EE200AC1ED130AD0
:103A800091ED120A9FED461AFEF735FF81ED0E0A01
:103A900091ED1D0AB8EE400AFCF70CFD91ED0C0A01
:103AA000D1ED0D0A01F1500030EE200AD1ED0E0AE1
:103AB00030EE200A81ED140A91ED1C0AB8EE400A9E
:103AC000FCF7F8FC91ED140A81ED150A91ED0E0A50
:103AD00081ED120A41E091ED0A0AD1ED001A71EE72
:103AE000400A60EEA10AC1ED0C0AD1ED010A60EEB8
:103AF000810AC1ED0D0AF0EE000A00EE601A91EDA8
:103B0000090AD1ED020A31EE000A20EE200A81ED09
:103B10000E0A91ED1D0AB8EE400AFCF7CBFC91EDC0
:103B20000C0AD1ED0D0A01F15C0030EE200AD1ED56
:103B30000E0A30EE200A81ED160AD1ED180A30EE99
:103B4000800A81ED170A91ED1C0AB8EE400AFCF7D5
:103B5000B1FC91ED170A81ED180A91ED0A0A81ED89
:103B6000090A91ED0B0A81ED0A0A91ED070A81ED30
:103B7000060A91ED080A81ED070A91ED040A81ED2C
:103B8000030A91ED050A81ED040AC86E032802D0EC
:103B900091ED170A00BD91ED140A00BD0000000070
:103BA0009A99193F00F16C0C8CE80E0080EC030A26
:103BB000704780EC030A70472DE9F041184C0F461E
:103BC000054666692068001D00F01AFA38B92068B9
:103BD00090F82C1001208840A1698143A161681CE4
:103BE00007D137B12168BDE8F0410E48091D00F04A
:103BF0004BBA20683544B5424560216805D2A068BB
:103C0000BDE8F041091D00F027BA6068091D00F009
:103C100023FA206B854200D22563BDE8F0810000C5
:103C200054000020640D00202DE9F041054600F00D
:103C300037FA2E4C2069401C206120682C4F10B1AF
:103C4000E06940B32DE025602069012829D10026D4
:103C500006EB860007EB800000F0F0F9761C072EDB
:103C6000F6D323488C3000F0E9F92148A03000F069
:103C7000E5F91F48B43000F0E1F91D48C83000F004
:103C8000DDF91B48DC3000F0D9F919488C30606050
:103C90001430A06005E02068E96AC06A884200D854
:103CA0002560E06A401CE062E96A0120A269884060
:103CB0001043A06101EB810007EB8000291D00F09B
:103CC000E3F900F00DFAE06900280CD02068E96AF9
:103CD000C06A884207D207494FF080500860BFF39E
:103CE0004F8FBFF36F8FBDE8F081000054000020BC
:103CF000880C002004ED00E010B5044690F8510057
:103D000058B101280CD002280FD0502080F3118820
:103D1000BFF34F8FBFF36F8FFEE7206B00F0F4F916
:103D20002046BDE8104000F0EFB910BD10484FF438
:103D30007051420706D0C01D0D4920F00700411AFE
:103D4000C1F570510B4A00230144C2E90003083950
:103D5000103A21F0070111604B600B600B1AC0E9AB
:103D6000001393604FF000405360D0607047000034
:103D7000780D0020A0000020144E154CA6F1C807B5
:103D80004FF08058DFF84C9012E000BF00F088F947
:103D9000F068C568281D00F033F92069401E2061D5
:103DA000E068401EE06000F09BF92846FFF7A4FFA2
:103DB000E0680028EAD138680128F9D9C9F80080FC
:103DC000BFF34F8FBFF36F8FF2E70000500D00205D
:103DD0005400002004ED00E02DE9F0479A46DDE9AB
:103DE000098481466FF00303206B03EB82021044C9
:103DF000089D20F00706700707D0502080F3118837
:103E0000BFF34F8FBFF36F8FFEE723180A5C83F871
:103E100034200A5C12B1401C1028F6D3002784F825
:103E20004370072D00D30625E562C4E91157201D14
:103E300000F00FF904F1180000F00BF92461C5F14E
:103E400007006462A061E76484F8507052464946F6
:103E5000304600F0BFF82060B8F1000F01D0C8F87C
:103E60000040BDE8F087000030B5114900E0114680
:103E70000A688242FBD34B685C18844203D14068D5
:103E800018444860084643681C18944209D1084CFD
:103E9000103C2468A24209D052681A4442600A6861
:103EA00012680260814200D0086030BD0460F9E70A
:103EB000A000002006484168096829B14168C96826
:103EC000C9684968016370474FF0FF31FAE70000A5
:103ED0005400002008484068401C4FF0500080F318
:103EE000118804D0BFF34F8FBFF36F8FFEE7BFF38E
:103EF0004F8FBFF36F8FFEE7A80000202DE9F04140
:103F00000546002700F0E2F9314E306808B9FFF7A6
:103F10000DFFF06805424BD1C5B3083568070ED0D8
:103F200005F00700C0F108000544680707D05020DD
:103F300080F31188BFF34F8FBFF36F8FFEE72DB370
:103F40007068854234D82248103001460C6801E080
:103F500020460C466168A94202D221680029F7D1A7
:103F600031688C4224D00768216801606068083796
:103F7000411B10290FD96019420708D0502080F347
:103F80001188BFF34F8FBFF36F8FFEE710E04160E2
:103F90006560FFF769FF61687068401A7060B26819
:103FA000904200D2B060F06801430020C4E90001F3
:103FB00000F022FB780707D0502080F31188BFF370
:103FC0004F8FBFF36F8FFEE73846BDE8F0810000EA
:103FD0009000002010B5031F4FF080741C601B1F61
:103FE00021F001011960191F044B0B6014390A609C
:103FF000091F6FF0020244380A6010BDD53E000868
:10400000D0E9013201699A60D0E901235A604A6817
:10401000824201D182684A60002202610868401E23
:104020000860086870470000034B036003F1540008
:1040300008608020106070479C06002000F1080195
:104040004FF0FF32C0E90112C1600161002101603F
:10405000704700210161704730B50B685A1C02D0CF
:1040600000F1080202E0026904E022465468256873
:104070009D42FAD953684B6099608A60516008612B
:104080000168491C016030BD42684A6093688B60DA
:1040900093685960916008610168491C016070472C
:1040A000502080F31188BFF34F8FBFF36F8F0A4901
:1040B0004868401C486001280CD10848006810F08E
:1040C000FF0F07D0502080F31188BFF34F8FBFF34D
:1040D0006F8FFEE770470000A800002004ED00E0AD
:1040E0000849486828B1401E486001D180F3118812
:1040F0007047502080F31188BFF34F8FBFF36F8F4D
:10410000FEE70000A800002070B5002827D0144D5D
:10411000A0F108046168E868014207D1502080F3EB
:104120001188BFF34F8FBFF36F8FFEE722683AB15C
:10413000502080F31188BFF34F8FBFF36F8FFEE7DE
:104140008143616000F0C2F8606869680844686093
:104150002046FFF789FEBDE8704000F04DBA70BD03
:10416000900000204FF0E0200021016181610549AD
:104170004FF47A720968B1FBF2F1491E41610721DF
:10418000016170475000002010B5020014D00F48A4
:10419000806B38B1502080F31188BFF34F8FBFF38D
:1041A0006F8FFEE700F092F800211046FFF704FD44
:1041B00000F022FA002807D105494FF0805008602E
:1041C000BFF34F8FBFF36F8F10BD0000540000206E
:1041D00004ED00E070B50D4604000BD095B11E4A09
:1041E000906BB8B1502080F31188BFF34F8FBFF3AD
:1041F0006F8FFEE7502080F31188BFF34F8FBFF31E
:104200006F8FFEE7502080F31188BFF34F8FBFF30D
:104210006F8FFEE700F05AF85269236859199342EC
:1042200004D98B420AD9914202D807E08B42FAD9CD
:10423000881A21600021FFF7BFFC00E0216000F038
:10424000DBF9002807D105494FF080500860BFF323
:104250004F8FBFF36F8F70BD5400002004ED00E05E
:1042600010B586B00024039405AA04A903A80494F9
:10427000FFF7DAFEDDE903010094CDE90110002328
:104280000EA11048059A00F014F90F490028486360
:1042900011D0502080F31188BFF34F8FBFF36F8F81
:1042A0004FF0FF3008630120C8614C6106B0BDE8E3
:1042B000104000F041B806B010BD000049444C4524
:1042C00000000000793D0008540000200248816B86
:1042D000491C816370470000540000201448816B22
:1042E00011B1012141627047002141628169B1FA37
:1042F00081F1C1F11F0101EB81020E4951F8223019
:104300006BB101EB820101F108034A6852684A600F
:104310009A4201D152684A60D168016070475020CA
:1043200080F31188BFF34F8FBFF36F8FFEE700005C
:1043300054000020880C00201CB537480168374A1B
:10434000914207D1502080F31188BFF34F8FBFF304
:104350006F8FFEE700683149491E884207D150201F
:1043600080F31188BFF34F8FBFF36F8FFEE72C49A7
:1043700008780190FF20087008788DF800009DF8FB
:1043800000009DF8002000F0F000904207D050207F
:1043900080F31188BFF34F8FBFF36F8FFEE79DF857
:1043A0000000204B00F0500018700720986005E0D6
:1043B0009DF8002052008DF80020401E9DF800203E
:1043C0001206F5D49860032807D0502080F3118896
:1043D000BFF34F8FBFF36F8FFEE74FF440709860CD
:1043E000019808700C482030016841F470010160A8
:1043F000016841F070410160FFF7B4FE0020586091
:10440000FBF702FF0848016841F040410160FBF7FB
:10441000E7FE00201CBD000000ED00E071C20F416E
:1044200000E400E0A800002034EF00E010B55020C8
:1044300080F31188BFF34F8FBFF36F8F00F078F8D0
:1044400018B104494FF080500860002080F31188B3
:1044500010BD000004ED00E02DE9FF5F8346DDE9BB
:104460000E87994616468A469000FFF747FD0500DD
:104470001CD05420FFF742FD040014D00020256317
:1044800084F85100CDE90240CDE900874B46324621
:1044900051465846FFF7A0FC2046FFF7C5FB012018
:1044A00004B0BDE8F09F2846FFF72EFE4FF0FF3026
:1044B000F6E7F0B585B0DDE90B640A9DA6B1DCB185
:1044C000542700972663022684F85160002604AF23
:1044D000CDE90246CDE90057FFF77EFC2046FFF705
:1044E000A3FB049805B0F0BD502080F31188BFF302
:1044F0004F8FBFF36F8FFEE7502080F31188BFF31B
:104500004F8FBFF36F8FFEE70548C16919B1806B0C
:1045100018B100207047012070470220704700004A
:1045200054000020014840697047000054000020FA
:104530002DE9F0412E4C0027A06B40B1206A401CB1
:104540002062606A00B101273846BDE8F0816669E3
:10455000761C666113D16068006838B1502080F322
:104560001188BFF34F8FBFF36F8FFEE76068A168BC
:104570006160A060A06A401CA062FFF79BFC206BFA
:10458000DFF87080864209D36068006880B1606897
:10459000C068C568686886420DD220632068C06A1A
:1045A00000EB800158F821000128CAD90127C8E78B
:1045B0004FF0FF30F1E7281DFFF722FDA86A18B180
:1045C00005F11800FFF71CFDE86A0121A26981408E
:1045D0001143A16100EB800108EB8100291DFFF769
:1045E00053FDE86A2168C96A8842CDD30127CBE729
:1045F00054000020880C00202DE9F0472C4D0024A9
:104600002746A86B38B1FFF74BFDA86B401EA86387
:10461000A86B40B146E0502080F31188BFF34F8F64
:10462000BFF36F8FFEE72969224E0120D1B3A6F1B7
:10463000B40980463068E8B1F068C46804F1180035
:10464000FFF7DEFC201DFFF7DBFCE06AAA6908FA31
:1046500000F11143A96100EB800109EB8100211DEC
:10466000FFF712FDE06A2968C96A8842E2D3C5F8FB
:104670002480DFE70CB1FFF71DFC2C6A44B14646ED
:10468000FFF756FF00B16E62641EF9D10020286268
:10469000686A38B10849012738070860BFF34F8FAF
:1046A000BFF36F8FFFF71CFD3846BDE8F0870000B1
:1046B000540000203C0D002004ED00E0504F0008A5
:1046C0002931000800000000000000008000000008
:1046D0000000000000000000444F000871070008BF
:1046E00002000000000000000001000000000000C7
:1046F00000000000344F0008F930000802000000FC
:1047000000000000000100000000000000000000A8
:104710000006101600061016000000000000000041
:104720000102030406070809000000000102030457
:1047300000000000920E493CB10AC93C2BC3163D53
:104740002EFB483D752B7B3D04A9963D80B6AF3DC1
:1047500036BDC83D2FBCE13D73B2FA3D87CF093E5F
:104760008340163EB5AB223EA2102F3ECF6E3B3E9D
:10477000C2C5473E0115543E135C603E7F9A6C3EB5
:10478000CCCF783EC07D823E938E883E229A8E3E6C
:1047900032A0943E86A09A3EE59AA03E128FA63E95
:1047A000D47CAC3EEF63B23E2A44B83E491DBE3EC7
:1047B00015EFC33E53B9C93ECA7BCF3E4136D53E05
:1047C00080E8DA3E4F92E03E7533E63EBBCBEB3EEF
:1047D000EA5AF13ECBE0F63E275DFC3EE4E7003FBF
:1047E0003D9C033F824B063F9BF5083F6B9A0B3F76
:1047F000DA390E3FCDD3103F2A68133FD9F6153F63
:10480000C07F183FC6021B3FD17F1D3FCBF61F3F25
:104810009967223F25D2243F5636273F1594293FDA
:104820004AEB2B3FDE3B2E3FBB85303FC9C8323FB2
:10483000F304353F233A373F4268393F3B8F3B3FD4
:10484000F9AE3D3F67C73F3F70D8413F01E2433F6C
:1048500003E4453F65DE473F12D1493FF8BB4B3F7C
:10486000029F4D3F207A4F3F3D4D513F4918533FE6
:1048700031DB543FE595563F5348583F6AF2593F64
:104880001A945B3F532D5D3F05BE5E3F2146603F5E
:1048900097C5613F5A3C633F59AA643F880F663F02
:1048A000D86B673F3CBF683FA7096A3F0C4B6B3F23
:1048B0005E836C3F93B26D3F9ED86E3F73F56F3F42
:1048C0000809713F5213723F4714733FDD0B743F69
:1048D0000BFA743FC6DE753F07BA763FC58B773F4C
:1048E000F853783F9812793F9DC7793F02737A3F1A
:1048F000BE147B3FCDAC7B3F283B7C3FC9BF7C3F98
:10490000AC3A7D3FCCAB7D3F23137E3FB0707E3F02
:104910006DC47E3F580E7F3F6D4E7F3FAB847F3F1F
:104920000FB17F3F97D37F3F43EC7F3F11FB7F3F2A
:104930000000803F11FB7F3F43EC7F3F97D37F3FD9
:104940000FB17F3FAB847F3F6D4E7F3F580E7F3F5F
:104950006DC47E3FB0707E3F23137E3FCCAB7D3F66
:10496000AC3A7D3FC9BF7C3F283B7C3FCDAC7B3F11
:10497000BE147B3F02737A3F9DC7793F9812793FFF
:10498000F853783FC58B773F07BA763FC6DE753F51
:104990000BFA743FDD0B743F4714733F5213723FA1
:1049A0000809713F73F56F3F9ED86E3F93B26D3F1C
:1049B0005E836C3F0C4B6B3FA7096A3F3CBF683F6F
:1049C000D86B673F880F663F59AA643F5A3C633FE4
:1049D00097C5613F2146603F05BE5E3F532D5D3F59
:1049E0001A945B3F6AF2593F5348583FE595563F4A
:1049F00031DB543F4918533F3D4D513F207A4F3FE3
:104A0000029F4D3FF8BB4B3F12D1493F65DE473F08
:104A100003E4453F01E2433F70D8413F67C73F3F52
:104A2000F9AE3D3F3B8F3B3F4268393F233A373F2A
:104A3000F304353FC9C8323FBB85303FDE3B2E3FD4
:104A40004AEB2B3F1594293F5636273F25D2243F6A
:104A50009967223FCBF61F3FD17F1D3FC6021B3F08
:104A6000C07F183FD9F6153F2A68133FCDD3103FBA
:104A7000DA390E3F6B9A0B3F9BF5083F824B063F9E
:104A80003D9C033FE4E7003F275DFC3ECBE0F63E64
:104A9000EA5AF13EBBCBEB3E7533E63E4F92E03E29
:104AA00080E8DA3E4136D53ECA7BCF3E53B9C93E97
:104AB00015EFC33E491DBE3E2A44B83EEF63B23EE9
:104AC000D47CAC3E128FA63EE59AA03E86A09A3ECC
:104AD00032A0943E229A8E3E938E883EC07D823EC6
:104AE000CCCF783E7F9A6C3E135C603E0115543EFD
:104AF000C2C5473ECF6E3B3EA2102F3EB5AB223E15
:104B00008340163E87CF093E73B2FA3D2FBCE13D8C
:104B100036BDC83D80B6AF3D04A9963D752B7B3DA3
:104B20002EFB483D2BC3163DB10AC93C920E493CB1
:104B300000000000920E49BCB10AC9BC2BC316BDCF
:104B40002EFB48BD752B7BBD04A996BD80B6AFBDBD
:104B500036BDC8BD2FBCE1BD73B2FABD87CF09BE5B
:104B6000834016BEB5AB22BEA2102FBECF6E3BBE99
:104B7000C2C547BE011554BE135C60BE7F9A6CBEB1
:104B8000CCCF78BEC07D82BE938E88BE229A8EBE68
:104B900032A094BE86A09ABEE59AA0BE128FA6BE91
:104BA000D47CACBEEF63B2BE2A44B8BE491DBEBEC3
:104BB00015EFC3BE53B9C9BECA7BCFBE4136D5BE01
:104BC00080E8DABE4F92E0BE7533E6BEBBCBEBBEEB
:104BD000EA5AF1BECBE0F6BE275DFCBEE4E700BFBB
:104BE0003D9C03BF824B06BF9BF508BF6B9A0BBF72
:104BF000DA390EBFCDD310BF2A6813BFD9F615BF5F
:104C0000C07F18BFC6021BBFD17F1DBFCBF61FBF21
:104C1000996722BF25D224BF563627BF159429BFD6
:104C20004AEB2BBFDE3B2EBFBB8530BFC9C832BFAE
:104C3000F30435BF233A37BF426839BF3B8F3BBFD0
:104C4000F9AE3DBF67C73FBF70D841BF01E243BF68
:104C500003E445BF65DE47BF12D149BFF8BB4BBF78
:104C6000029F4DBF207A4FBF3D4D51BF491853BFE2
:104C700031DB54BFE59556BF534858BF6AF259BF60
:104C80001A945BBF532D5DBF05BE5EBF214660BF5A
:104C900097C561BF5A3C63BF59AA64BF880F66BFFE
:104CA000D86B67BF3CBF68BFA7096ABF0C4B6BBF1F
:104CB0005E836CBF93B26DBF9ED86EBF73F56FBF3E
:104CC000080971BF521372BF471473BFDD0B74BF65
:104CD0000BFA74BFC6DE75BF07BA76BFC58B77BF48
:104CE000F85378BF981279BF9DC779BF02737ABF16
:104CF000BE147BBFCDAC7BBF283B7CBFC9BF7CBF94
:104D0000AC3A7DBFCCAB7DBF23137EBFB0707EBFFE
:104D10006DC47EBF580E7FBF6D4E7FBFAB847FBF1B
:104D20000FB17FBF97D37FBF43EC7FBF11FB7FBF26
:104D3000000080BF11FB7FBF43EC7FBF97D37FBFD5
:104D40000FB17FBFAB847FBF6D4E7FBF580E7FBF5B
:104D50006DC47EBFB0707EBF23137EBFCCAB7DBF62
:104D6000AC3A7DBFC9BF7CBF283B7CBFCDAC7BBF0D
:104D7000BE147BBF02737ABF9DC779BF981279BFFB
:104D8000F85378BFC58B77BF07BA76BFC6DE75BF4D
:104D90000BFA74BFDD0B74BF471473BF521372BF9D
:104DA000080971BF73F56FBF9ED86EBF93B26DBF18
:104DB0005E836CBF0C4B6BBFA7096ABF3CBF68BF6B
:104DC000D86B67BF880F66BF59AA64BF5A3C63BFE0
:104DD00097C561BF214660BF05BE5EBF532D5DBF55
:104DE0001A945BBF6AF259BF534858BFE59556BF46
:104DF00031DB54BF491853BF3D4D51BF207A4FBFDF
:104E0000029F4DBFF8BB4BBF12D149BF65DE47BF04
:104E100003E445BF01E243BF70D841BF67C73FBF4E
:104E2000F9AE3DBF3B8F3BBF426839BF233A37BF26
:104E3000F30435BFC9C832BFBB8530BFDE3B2EBFD0
:104E40004AEB2BBF159429BF563627BF25D224BF66
:104E5000996722BFCBF61FBFD17F1DBFC6021BBF04
:104E6000C07F18BFD9F615BF2A6813BFCDD310BFB6
:104E7000DA390EBF6B9A0BBF9BF508BF824B06BF9A
:104E80003D9C03BFE4E700BF275DFCBECBE0F6BE60
:104E9000EA5AF1BEBBCBEBBE7533E6BE4F92E0BE25
:104EA00080E8DABE4136D5BECA7BCFBE53B9C9BE93
:104EB00015EFC3BE491DBEBE2A44B8BEEF63B2BEE5
:104EC000D47CACBE128FA6BEE59AA0BE86A09ABEC8
:104ED00032A094BE229A8EBE938E88BEC07D82BEC2
:104EE000CCCF78BE7F9A6CBE135C60BE011554BEF9
:104EF000C2C547BECF6E3BBEA2102FBEB5AB22BE11
:104F0000834016BE87CF09BE73B2FABD2FBCE1BD88
:104F100036BDC8BD80B6AFBD04A996BD752B7BBD9F
:104F20002EFB48BD2BC316BDB10AC9BC920E49BCAD
:104F30000000008052656D6F746544617461546156
:104F4000736B0000636861737369735461736B0002
:104F500064656661756C745461736B007C4F000806
:104F600000000020B400000066380008305000083F
:104F7000B4000020C44C0000763800080000000097
:104F8000000000000000000000000000E02E20D122
:104F9000D00730F800000000000000000000000012
:104FA0000000000000000000000000000000000001
:104FB00000000000000000000000000000000000F1
:104FC0000100000010000000000000000024F400B8
:104FD00000000000000000000000000000000000D1
:104FE00000000000000000000000000000000000C1
:104FF00000000000000000000000000000000000B1
:1050000000000000000000000000000000000000A0
:105010000000000000000000000000000000000090
:105020000000000000000000AAAAAAAA00000000D8
:04000005080001AD41
:00000001FF
