:020000040800F2
:10000000C84E002081020008CF31000839280008BE
:10001000CD310008D1080008B53B00080000000001
:10002000000000000000000000000000C101000806
:10003000110A0008000000001D020008D534000865
:100040009B0200089B0200089B0200089B0200081C
:100050009B0200089B0200089B0200089B0200080C
:10006000130A00089B020008190A00089B020008F6
:10007000310900089B0200089B0200089B0200084F
:100080003D0900089B0200089B0200089B02000833
:10009000D50800089B0200089B0200081F0A000800
:1000A0009B0200089B0200089B0200089B020008BC
:1000B0009B020008C93500089B0200089B0200084B
:1000C0009B0200089B0200089B0200089B0200089C
:1000D0009B0200086D3A0008553B00089B0200088F
:1000E0009B0200089B0200089B0200089B0200087C
:1000F0009B0200089B0200089B0200089B0200086C
:100100009B0200089B0200089B0200089B0200085B
:100110009B0200089B020008D53500089B020008DE
:100120009B02000849090008550900089B020008C5
:10013000610900089B0200089B0200089B0200085E
:10014000E10800089B0200089B0200089B020008CF
:100150009B0200089B0200089B020008613B00080C
:100160009B0200089B0200089B0200089B020008FB
:100170009B0200089B0200089B0200080000000090
:100180009B0200089B0200089B020008E135000862
:100190009B0200089B0200089B0200089B020008CB
:1001A00000000000000000009B020008DFF80CD0F7
:1001B00000F0E2FA004800470F3D0008C84E00205A
:1001C0002C4B19680868B0E8F04F80F30988BFF33A
:1001D0006F8F4FF0000080F311887047000000001F
:1001E00008480068006880F308884FF0000080F33A
:1001F000148862B661B6BFF34F8FBFF36F8F00DF15
:1002000000BF00BF08ED00E0DFF80C00016841F41A
:1002100070010160704700BF88ED00E0EFF30980D6
:10022000BFF36F8F134B1A681EF0100F08BF20ED3D
:10023000108A20E9F04F106009B44FF0500080F3AD
:100240001188BFF34F8FBFF36F8F04F047FB4FF060
:10025000000080F3118809BC19680868B0E8F04F05
:100260001EF0100F08BFB0EC108A80F30988BFF3AE
:100270006F8F704794000020EFF3058070470000F7
:100280000648804706480047FEE7FEE7FEE7FEE730
:10029000FEE7FEE7FEE7FEE7FEE7FEE7753500084E
:1002A000AD0100082DE9F05F0546002092469B460F
:1002B00088460646814640241BE02846414647467C
:1002C000224600F0A3F953465A46C01A914110D372
:1002D00011461846224600F08AF92D1A67EB0108EC
:1002E0004F4622460120002100F081F917EB00095A
:1002F0004E41201EA4F10104DFDC484631462A4667
:100300004346BDE8F09F40EA01039B0703D009E0A4
:1003100008C9121F08C0042AFAD203E011F8013BF1
:1003200000F8013B521EF9D27047D2B201E000F84A
:10033000012B491EFBD270470022F6E710B5134689
:100340000A4604461946FFF7F0FF204610BD2DE986
:10035000FE4F804681EA0300C00F0C46009021F05A
:10036000004123F00045B8EB0200A94105D2404608
:10037000214690461C460B46024623F0004010439F
:1003800047D0270DC7F30A00C3F30A510290401A61
:10039000019040286BDAC3F3130040F4801B0098EF
:1003A000924620B10023D2EB030A63EB0B0B0198BA
:1003B0005946C0F14002504600F019F906460D4674
:1003C00050465946019A00F031F910EB080061419E
:1003D000002487EA115284EAE7731A4340D0009A56
:1003E00062B3019A012A4FEA075215DC001B61EB48
:1003F00002014FF0004202EA0752CDE90042001C20
:1004000041F5801132462B4600F068F903B0BDE893
:10041000F08F40462146F9E7001B61EB0201001C0A
:1004200041F5801300185B412018A2F5001747EB37
:10043000030140EAD570B6196D4111E06D084FEA2D
:10044000360645EAC0754FEA0752001B61EB020110
:10045000001C41F5801149084FEA30000019514154
:1004600032462B4603B0BDE8F04F00F028B90098A3
:10047000012240000023D0EB020263EBE0730098FE
:1004800021464FEAE074B8EB000061EB0401E9E7B4
:1004900083F000435BE781F0004158E72DE9F04D20
:1004A00081EA030404F0004B21F0004514464FF0AC
:1004B000000A23F0004150EA050220D054EA01026C
:1004C0001DD0C5F30A570246C5F31303C1F3130049
:1004D000C1F30A5640F4801543F48013A7EB0608D5
:1004E000101BD64608F2FD3873EB050002D308F165
:1004F000010801E092185B41B8F1000F03DA002017
:100500000146BDE8F08D00204FF480110646844678
:100510000EE0171B73EB050705D3121B63EB0503F6
:1005200006434CEA010C49084FEA300092185B413F
:1005300050EA0107EDD152EA030012D082EA04002A
:1005400083EA0501084305D0101BAB4106D2012206
:10055000002306E000224FF0004302E06FF00102AA
:1005600053101AEB06004CEB085110EB0A0041EB5C
:100570000B01BDE8F04D00F0A2B80EB5C10F80EA46
:10058000E0700844CA07002140F233438DE80E00B2
:100590000A460B4600F0A2F803B000BD0EB540F2CB
:1005A000334102910021CDE900110A460B4600F0CB
:1005B00095F803B000BD01F0004330B421F00041D4
:1005C00050EA010206D00A0DA2F56072C1F31301D0
:1005D000002A02DC30BC00207047440F44EAC1040A
:1005E000C100E01830BC00EBC25000F031B8202A46
:1005F00004DB203A00FA02F1002070479140C2F17A
:10060000200320FA03F3194390407047202A04DBAB
:10061000203A21FA02F00021704721FA02F3D0407B
:10062000C2F120029140084319467047202A06DB98
:10063000CB17203A41FA02F043EAE07306E041FAB0
:1006400002F3D040C2F1200291400843194670479E
:100650000029A8BF7047401C490008BF20F00100D6
:10066000704710B4B0FA80FC00FA0CF050EA0104B4
:1006700004BF10BC704749B1CCF1200421FA04F446
:1006800011FA0CF118BF012121430843A3EB0C011F
:10069000CB1D4FEA00614FEA102042BF002010BC82
:1006A000704700EBC35010440029A4BF10BC704732
:1006B000401C490008BF20F0010010BC704710B575
:1006C000141E73F1000408DA401C41F10001921875
:1006D0005B411A4301D120F0010010BD2DE9F04D1E
:1006E00092469B4611B1B1FA81F202E0B0FA80F273
:1006F00020329046FFF77BFF04460F4640EA0A008F
:1007000041EA0B0153465A46084313D0114653EAB7
:10071000010019D0C8F140025046FFF777FF0546A7
:100720000E46504659464246FFF761FF084305D042
:10073000012004E020463946BDE8F08D0020054345
:1007400046EAE0762C4337430A986305E40AA0EBB7
:1007500008000022FD0A44EA47540A3002D500206E
:100760000146E9E7010510196941DDE9084500196D
:100770006941BDE8F04DA2E7064C074D06E0E06890
:1007800040F0010394E8070098471034AC42F6D3D8
:10079000FFF710FDE450000804510008D0ED000AF6
:1007A000F4EEC00AF1EE10FA01DD80ED000AD0EDA2
:1007B000000AB1EE400AF4EEC00AF1EE10FA01D2DE
:1007C00080ED000A7047000010B502F055FB02F002
:1007D000F9FA02F009FD02F0ADFA02F0CFFA02F0E8
:1007E00043FC02F081FC02F09DFC02F0B7FC02F039
:1007F000D1FC02F05DFC03F015FA01F0EDFF02F010
:1008000003F80E4800F03AFD0D4800F037FD02F005
:100810009FF912220B490C4800F050F804210748B8
:1008200000F028F90421064800F024F9BDE8104042
:1008300064220649064800F041B80000F80600208E
:100840002007002044040020B40A0020E003002018
:10085000740B002070B5044690F83900202801D0B0
:10086000212829D121B31AB394F83800012823D0C4
:10087000012084F83800A162A2850025E56394F880
:100880003900212816D0222084F839000846134662
:10089000666B216802463046091D00F06FFE206835
:1008A000416941F04001416184F83850002070BD39
:1008B000012070BD2320E7E7022070BD10B504467B
:1008C000FFF7C8FF2068C16841F01001C16010BD8A
:1008D000FEE70000014800F03EBA0000F8060020E4
:1008E000014800F038BA00002007002070B586B03B
:1008F000082404940024039402940A9D4FF4007485
:1009000000940A4C0E0A26706170110AA170E27000
:10091000190A21716371290AA171E571A4F1080313
:100920002246694600F0B8F806B070BD68000020A5
:10093000014800F0E9BC0000B40C0020014800F0C0
:10094000E3BC0000540C0020014800F0DDBC0000B6
:10095000140D0020014800F0D7BC0000F40B00206B
:10096000014800F0D1BC000098060020016818235F
:10097000CAB2103AB2FBF3F2054B6FF30901032A36
:100980009B5CC36500D9091D81650846704700005E
:10099000B050000810B5014600208B698A6A4FF0FC
:1009A000C07453B1B3F5005F15D072B1012A0CD0F9
:1009B000022A0AD0032A09D104E01AB1012A06D07A
:1009C000022A03D1C96AC90100D5012010BDC96A34
:1009D000A142FAD010BD002AF7D0012AF2D0022A93
:1009E000F3D0032AF3D010BD30B50468256825F490
:1009F00080252560046863608368402B036803D00A
:100A000099600068C26030BD9A600068C16030BD06
:100A10007047042000F0ECBD102000F0E9BD8020FC
:100A200000F0E6BD7047000010B50F4C2DED028BB5
:100A3000A068FFF7A2FD41EC180BE0680068406A6F
:100A4000FFF7ACFD9FED091B53EC112BFFF726FDC3
:100A500053EC182BFFF77BFCFFF7ADFDBDEC028BD1
:100A600000EE100A10BD0000F4000020000000009D
:100A70000000594090F82020012A07D0022A05D012
:100A8000416A41F480214162012070470068426957
:100A90000A43426100207047F0B590F82050046886
:100AA000A468012D05D0022D03D0416A41F48021B4
:100AB00053E014F0406F01D1E5004BD5C4F301645D
:100AC000022C03D9416A41F4000146E00125A5400A
:100AD0001D608D684FF4C0739DB1CE6835434E687C
:100AE00045EAC605066803EB0417F5514FF4C275D5
:100AF000076805EB04150E697E51097D012905D0B3
:100B000009E00E88CD6845EA4655EBE701684E5985
:100B100046F480764E511179D2F805504FF4C676DE
:100B200041EA0525016806EB04168D511178D2F8CB
:100B300001204FF4C47541EA0221026805EB041557
:100B40005151006803EB0411425842F00102425037
:100B50000020F0BD416A41F4001141620120F0BD66
:100B600010B590F82020012A07D0022A05D0416A4A
:100B700041F480214162012010BD3B48D0F80022A1
:100B800042F00102C0F80022D0F8002222F47C5288
:100B9000C0F80022D0F800224B6A42EA0322C0F8D3
:100BA00000220A7D02F01F0301229A40D0F81C3275
:100BB0009343C0F81C32CB69B3B9D0F80C329343DD
:100BC000C0F80C328C894B6864F31F434C6900EB0E
:100BD000C404C4F840320C890B6864F31F434C69A9
:100BE00000EBC404C4F84432CB69012B16D1D0F811
:100BF0000C321343C0F80C320C884B6864F31F436B
:100C00004C6900EBC404C4F840320C89CB6864F32F
:100C10001F434C6900EBC404C4F844328B69002BB9
:100C2000D0F804320ED01343C0F804320B69002B05
:100C3000D0F8143208D01343C0F81432096A0129DD
:100C400004D008E09343EFE79343F5E7D0F81C1294
:100C50001143C0F81C12D0F8001221F00101C0F8B5
:100C60000012002010BD000000640040704730B545
:100C700090F82040012C05D0022C03D0416A41F4A9
:100C800080215DE00468002955D02469A40754D070
:100C90004FF4D874056804EB01142D5915F00405C0
:100CA000956005682D594ED0ED08556005682C59A2
:100CB000C4F34004D4604FF4DA74056804EB011403
:100CC0002D5905F00F05156105682D59C5F3072548
:100CD000956105682C59240C54614FF4DC7204684A
:100CE00002EB0112A4581C700468A458240A5C701A
:100CF0000468A458240C9C700468A258120EDA7080
:100D00004FF4DE72046802EB0112A4581C710468EF
:100D1000A458240A5C710468A458240C9C710468CB
:100D2000A258120EDA71006881B1016941F0200108
:100D30000161002030BDE468A8E7416A41F4001178
:100D40004162012030BD6D0D1560AFE7C16841F013
:100D50002001C160EDE72DE9F05F05460068002441
:100D60004669D0F804908768D0F80CB0D0F810A08D
:100D7000D0F81880F10748D0F90714D0012181601C
:100D8000B80703D5284600F0A6FA0CE0780702D58C
:100D90004FF4006407E0380702D54FF4805402E0B6
:100DA000284600F097FAF80516D529684FF48070A8
:100DB0008860B80503D5284600F08FFA0CE0780566
:100DC00002D544F4005407E0380502D544F48044C9
:100DD00002E0284600F080FAF80316D529684FF49F
:100DE00080308860B80303D5284600F078FA0CE01C
:100DF000780302D544F4004407E0380302D544F4F4
:100E0000803402E0284600F069FA300707D55FEA2F
:100E1000CB6004D52968102044F40074C8607007C2
:100E20004FF0080707D55FEA0B7004D52868C76044
:100E3000284600F099F9B00706D52868C0688007F1
:100E400002D0284600F016FA700607D55FEACA609D
:100E500004D52968102044F480640861B00607D5E1
:100E60005FEA0A7004D528680761284600F003FA93
:100E7000F00606D528680069800702D0284600F0F1
:100E8000FBF9B00308D55FEAC96005D529681020D1
:100E90004860284600F0F1F9F00307D55FEA0970D1
:100EA00004D528684760284600F01AFA300446D571
:100EB0005FEA497040D5F00504D55FEAC87001D0FB
:100EC00044F00104B00504D55FEA887001D544F010
:100ED0000204700504D55FEA487001D544F00404AB
:100EE000300529D518F0700F26D008F07000402882
:100EF00015D006DC102809D020280AD0302816D1B9
:100F00000AE050280ED0602811D10EE044F0080409
:100F10000DE044F010040AE044F0200407E044F03F
:100F2000400404E044F0800401E044F48074286844
:100F3000816921F070018161296804204860002CDA
:100F400005D0686A204368622846FFF78FFEBDE837
:100F5000F09F70B5040003D094F8200010B104E0B5
:100F6000012070BD204600F081F82068016821F062
:100F70000201016000F034FC0546052604E000F0A3
:100F80002FFC401B0A2811D8206840688007F6D43F
:100F90002068016841F00101016000F021FC054674
:100FA0000BE000F01DFC401B0A2806D9606A40F4E3
:100FB0000030606284F82060D2E720684068C00793
:100FC000EFD0207E0128206801683DD021F080010B
:100FD0000160607E01282068016838D021F040015E
:100FE0000160A07E01282068016833D021F0200133
:100FF0000160E07E0128206801682ED041F01001D8
:101000000160207F01282068016829D021F00801B3
:101010000160607F01282068016824D021F004016C
:101020000160D4E902010843D4E9041211430843E2
:101030006168491E08432168C86100206062012080
:1010400084F82000002070BD41F08001C0E741F02D
:101050004001C5E741F02001CAE721F01001CFE7C8
:1010600041F00801D4E741F00401D9E7F0B587B0B9
:10107000044614216846FFF75FF9364B3648DFF81F
:10108000D0E01968D4F800C0334A032502260927A6
:1010900010300024491CF44522D11960012907D1E0
:1010A000016841F000710160006800F00070059077
:1010B000106840F0080010601068CDE9005600F09C
:1010C0000800CDE9047069462448CDE9024500F0E6
:1010D0009BFA00221146142000F0F0FB142033E0AC
:1010E000DFF87CE0F44531D1D0F800C04CF0806CE2
:1010F000C0F800C0D0F800C001290CF0806CCDF819
:1011000014C0196007D1016841F0007101600068E6
:1011100000F000700590106840F002001060106848
:1011200002AB00F0020005904FF44050CDE90006FC
:1011300083E8B00069460B4800F066FA00221146C9
:10114000402000F0BBFB402000F0AAFB07B0F0BD40
:10115000006400407C00002030380240000C024057
:1011600000680040000402402DE9F0410646006896
:101170003749384F3325384C88421DD1374B3A46D2
:1011800000213748FFF773FD3868A0F5007001387B
:101190000ED1A06A411CA162322804D82F493148DF
:1011A00002F0B0FD04E02D492E48A56202F08AFD50
:1011B00004212B48FFF75EFC2B493068884244D15C
:1011C000264B244A00212948FFF751FD3868A0F535
:1011D0000070013804D0012810D002282FD11CE063
:1011E000A06A411CA162322802D81C491D481CE09B
:1011F0001A491C48A56202F065FD20E0A06A411C66
:10120000A162322802D8154919480EE0134918483E
:10121000A56202F057FD03200FE0A16A481CA062FE
:1012200013483C30322903D80C4902F06BFD06E02C
:101230000A49A56202F046FD042002F0A3F8BDE8C9
:10124000F04104210948FFF715BCBDE8F08100001A
:1012500000640040800500202C0500207000002064
:10126000F806002014060020006800402007002037
:101270009C050020704770477047704770B5044662
:1012800090F82000012804D0606A40F400206062D9
:1012900018E0022084F820002068016821F0010194
:1012A000016000F09DFA05460EE000BF00F098FADC
:1012B000401B0A2808D9606A40F4003060620520AB
:1012C00084F82000012070BD20684068C007EDD17F
:1012D000606270BD704770477047704770477047D5
:1012E000704790F83510022903D080214165012014
:1012F0007047052180F835100068016821F0010170
:1013000001600020704700002DE9F84304464FF0CB
:101310000009CDF8009063484FF41651A56D0068A0
:10132000B0FBF1F72E6894F85C10082000FA01F188
:1013300031420FD021680A6852070BD50A6822F0A3
:1013400004020A6094F85C108840A860606D40F068
:101350000100606594F85C104FF0010808FA01F094
:10136000304208D021684969090604D5A860606D3B
:1013700040F00200606594F85C1004208840304220
:1013800008D021680968890704D5A860606D40F01D
:101390000400606594F85C1010208840304218D03A
:1013A00021680968090714D5A86020680168490305
:1013B00004D50068000308D5A16C07E00168C905E1
:1013C00003D4016821F008010160216C09B12046B5
:1013D000884794F85C1020208840304231D0216842
:1013E0000968C9062DD5A86094F83500052820683D
:1013F000016806D0490347D5006800031DD4616C1D
:101400001CE021F0160101602068416921F0800193
:101410004161206C08B9A06C20B12068016821F0FE
:101420000801016094F85C103F208840A86084F8AF
:10143000349084F83580216D1FE0E16B09B12046BE
:101440008847606D00282BD0606DC00714D0052040
:1014500084F835002068016821F0010101600098DE
:10146000401C0090B84203D820680068C007F6D13D
:1014700084F8349084F83580E16C002910D001B0F4
:101480002046BDE8F04308470168C905D5D4016886
:1014900021F01001016084F8349084F83580CCE7A5
:1014A000BDE8F883900000202DE9F041044600F0EB
:1014B00097F906465CB1002584F83450022084F880
:1014C00035002068016821F0010101600DE0012074
:1014D000BDE8F08100F084F9801B052805D92020A3
:1014E0006065032084F83500F2E720680068C007D3
:1014F000F0D12268116820480140D4E90103184363
:10150000D4E903363343184363691843A369184386
:10151000E3691843236A18430843616A042903D125
:10152000D4E90B1319430843106020684069666AC8
:1015300020F0070130460E43012704280CD1A06A91
:101540000643E06A40B12046FFF724FA20B140206C
:10155000606584F83570BAE7206846612046FFF779
:1015600005FA94F85C203F2191408160656584F81C
:1015700035700020ACE700003F8010F070B50446E5
:1015800090F83400002501280CD0012084F83400A4
:1015900094F835600020012E06D084F8340002252E
:1015A000284670BD022070BD022684F83560606553
:1015B0002046FFF719FA2068016841F00101016037
:1015C000EEE770B5054600244FF47A7603E0304626
:1015D00002F038FB641CAC42F9D370BD102803D173
:1015E00002490878401C0870704700000100002084
:1015F000044910B50A68024202D00860FFF7EEFF06
:1016000010BD0000143C01402DE9F84FDFF890B107
:1016100000224FF001084FF0030A4FF00F090BF1C1
:10162000040E00BF0B6808FA02F42340A3426ED1F7
:101630004D68022D01D0122D0ED1D50800EB850C7E
:10164000DCF820505607F70E09FA07F6B5430E6985
:10165000BE402E43CCF82060066855000F790AFA88
:1016600005FC07F0030726EA0C06AF403743076086
:101670004E68012E05D0022E03D0112E01D0122E5D
:101680000ED18768CE6827EA0C07AE403E438660DD
:101690004668A6430C79C4F3001494403443446074
:1016A000C4688E6824EA0C04AE402643C6604C68C9
:1016B000E4006FD53B4C256845F4804525602468DF
:1016C00022F0030504F480440094374C2E19D6F818
:1016D000084895072F0F09FA07F5AC43334DA84288
:1016E00001D100252EE0324DA84201D1012529E08B
:1016F000304DA84201D1022524E02F4DA84201D14E
:1017000003251FE02D4DA84202D104251AE041E037
:101710002B4DA84201D1052514E02A4DA84201D144
:1017200006250FE0284DA84201D107250AE0274DE4
:10173000A84201D1082505E0254DA84201D109257F
:1017400000E00A25BD402543C6F80858DBF80040F4
:101750005D464E689C43F60300D51C432C60DEF8C2
:10176000004075464E689C43B60300D51C432C6070
:101770000B4D08352C684E689C43F60200D51C437F
:101780002C60074D0C352C684E689C43B60200D582
:101790001C432C60521C102AFFF444AFBDE8F88FA4
:1017A000003C01404438024000300140000002404B
:1017B0000004024000080240000C024000100240F9
:1017C0000014024000180240001C024000200240A9
:1017D000002402400AB1816170470904FBE7000060
:1017E000014880687047000084000020024881683A
:1017F0000278114481607047840000200B4810B5C6
:10180000016841F400710160016841F48061016088
:10181000016841F480710160032000F06FF80F202F
:1018200000F006F800F024F8002010BD003C024053
:1018300070B50D4D04464FF47A712878B1FBF0F085
:101840000A490968B1FBF0F000F05BFC48B9102CC4
:1018500007D200222146501E00F030F800206C60B4
:1018600070BD012070BD00008400002090000020A9
:101870000A4808B5016841F480410160006800F43D
:10188000804000900548001F016841F080510160D0
:10189000006800F08050009008BD0000443802400D
:1018A000002809DB00F01F0201219140400980005F
:1018B00000F1E020C0F8001170470000F0B40E4BBA
:1018C0001B680C46C3F30223C3F10705042D00D99E
:1018D0000425191D072901D2002300E0DB1E012683
:1018E00006FA05F1491E214099409E40761E164099
:1018F0003143F0BC02F077B90CED00E0064900F08E
:10190000070208684FF6FF03184040EA0220034A26
:1019100010430860704700000CED00E00000FA057D
:101920002DE9F0470E46050065D0DFF81481D8F8A0
:101930000000F7B200F00F00B04207D288F8007044
:10194000D8F8000000F00F00B04254D128683D4C98
:10195000810712D5400703D5206840F4E05020608D
:101960002878000703D5206840F460402060206894
:10197000A96820F0F000084320602878C0072DD027
:10198000304968680839012812D0022813D003288A
:1019900011D00968890700292DDA216821F0030197
:1019A00001432160FFF71CFF814641F2883A0EE0B7
:1019B00009688903EFE709688901ECE7FFF710FF81
:1019C000A0EB0901514502D90320BDE8F08720684A
:1019D000696800F00C00B0EB810FEFD1D8F800106F
:1019E000404601F00F01B14207D90770006800F0CE
:1019F0000F00B04201D00120E7E72878400705D565
:101A00002068E96820F4E050084320602878000747
:101A100006D52068296920F4604040EAC1002060B2
:101A200000F03CF82168084AC1F30311515CC8403A
:101A3000064908600F20FFF7FBFE0020C5E7000005
:101A4000003C024008380240B850000890000020D6
:101A500001480068704700009000002004480549D4
:101A600000680968044AC1F38221515CC84070478C
:101A70009000002008380240C8500008044805497A
:101A800000680968044AC1F34231515CC84070479C
:101A90009000002008380240C8500008154810B5D2
:101AA000006810F00C02144813D01449042A0FD017
:101AB000082A0ED10F4C241F2268236802F03F022F
:101AC0005B0207D52068C0F38810A0FB010106E087
:101AD000084610BD2168C1F38811A1FB0001002355
:101AE000FEF7E0FB2168C1F30141491C4900B0FB4E
:101AF000F1F010BD083802400024F400001BB700CC
:101B00002DE9F84F050076D02878DFF8F8B2BE4C02
:101B1000C00749D0DBF800105846C1F38101012904
:101B200008D00068C0F3810002280AD1201D006897
:101B3000400206D52068800336D568680028E2D0C8
:101B400032E06868B0F5803F10D0B0F5A02F206873
:101B500010D020F480302060206820F480202060A5
:101B60006868A0B1FFF73CFE06460CE0206840F430
:101B70008030F4E740F480202060F7E7FFF730FE84
:101B8000801B642873D820688003F7D50CE0FFF72A
:101B900027FE064605E000BFFFF722FE801B6428F3
:101BA000F0D820688003F7D42878DFF860828007B7
:101BB0004FF000093ED5DBF80010584611F00C0F2D
:101BC00009D00068C0F3810002280BD18D48001FA6
:101BD0000068400206D42068800715D5E86801280F
:101BE00009D111E0E868B8B10120C8F80000FFF79A
:101BF000F7FD064605E002E1FFF7F2FD801B022833
:101C0000C0D820688007F7D52068296920F0F8003F
:101C100040EAC10020600DE0C8F80090FFF7E0FD49
:101C2000064604E0FFF7DCFD801B02281FD8206871
:101C30008007F7D42878000722D5724E7448696966
:101C40006C3671B101210160FFF7CAFD074604E05F
:101C5000FFF7C6FDC01B022809D830688007F7D5FA
:101C60000EE0C0F80090FFF7BBFD074605E083E0FB
:101C7000FFF7B6FDC01B02287ED830688007F7D476
:101C80002878400768D5DFF87CA100270AF1380AD8
:101C9000DAF80000C0000BD4DAF8001041F08051EF
:101CA000CAF80010DAF80000012700F08050009018
:101CB000584E3068C00510D4306840F480703060F1
:101CC000FFF78EFD009005E0FFF78AFD0099401AAE
:101CD000022851D83068C005F6D54A4EA868683643
:101CE00001280FD00528306810D020F001003060A6
:101CF000306820F004003060A868B8B1FFF770FDCC
:101D000000900FE0306840F00100F4E740F004007C
:101D10003060F7E7FFF764FD0099411A41F288301F
:101D2000814264D830688007F4D50EE0FFF758FD93
:101D3000009007E0FFF754FD0099411A41F2883006
:101D4000814254D830688007F4D42FB1DAF80010FB
:101D500021F08051CAF80010A869C0B3DBF8001068
:101D6000C1F3810102294AD00228484607D0C8F8A9
:101D70006000FFF735FD00E039E005463AE04746F0
:101D8000C8F86000FFF72CFD064604E0FFF728FDC9
:101D9000801B02282BD820688001F7D4D5E90701E1
:101DA0000843A96A1C4A490802EB01416A6A41EAF0
:101DB0008211084395F82C1040EA01611148001F78
:101DC000016001203866FFF70BFD054605E014E0D1
:101DD000FFF706FD401B022809D820688001F7D5CF
:101DE0000BE000BFFFF7FCFC401B022802D90320D8
:101DF000BDE8F88F20688001F4D40020F8E70120C6
:101E0000F6E7000008380240003802400000474270
:101E1000800E4742007000400000FFFF70B50400D4
:101E200005D00025A56294F8510010B106E001200C
:101E300070BD84F85050204600F030F8022084F83D
:101E400051002068016821F040010160D4E90101DE
:101E50000843D4E903121143084361690843218B05
:101E600001F400710843E1690843216A0843A16A4B
:101E7000084321680860A069042101EA1040616AF2
:101E80000843216848602068C16921F40061C1618C
:101E90006565012084F85100002070BD10B586B042
:101EA000044614216846FEF747FA14492068884220
:101EB00021D113480021026842F4801202600068B8
:101EC00000F4801005900E481438026842F0200299
:101ED0000260006800F0200005904FF460700090F0
:101EE0000220CDE9010103200390052004906946FA
:101EF0000448FFF789FB06B010BD00000050014008
:101F000044380240001402402DE9F84F044690F88E
:101F1000500000270A9E1D4692468B464FF001094D
:101F200001280ED0012084F85000FFF759FC8046AC
:101F300094F85100616801280CD0B1F5827F07D177
:101F400002E00220BDE8F88FA16809B9042801D099
:101F50000227C2E0BBF1000F27D0BAF1000F24D056
:101F60001DB394F85100042802D0052084F85100D4
:101F700000206065C4F838A0E587A587C4F830B0B4
:101F8000E586A5862064606420680168490603D45C
:101F9000016841F040010160E068B0F5006F6068E1
:101FA00005D0E8B3012D46D07FE0012795E008B1C8
:101FB000012D39D1206B21680088C860206B801CFE
:101FC0002063E08E401EE0862EE02068816889074D
:101FD0000FD5E18E69B1B9F1010F0AD1216B0988E2
:101FE000C160206B801C2063E08E401EE0864FF0B5
:101FF000000920688168C9070CD0E18F51B1C06821
:10200000A16B0880A06B801CA063E08F401EE0875E
:102010004FF00109FFF7E4FBA0EB0800B04200E03D
:1020200009E001D3701C50D1E08E0028CDD1E08FA3
:102030000028CAD13FE0206B216800780873206B2C
:10204000401C2063E08E401EE0862EE02068816800
:1020500089070FD5E18E69B1B9F1010F0AD1216B62
:1020600009780173206B401C2063E08E401EE086DF
:102070004FF0000920688168C9070CD0E18F51B189
:10208000C068A16B0870A06B401CA063E08F401E6D
:10209000E0874FF00109FFF7A3FBA0EB0800B04277
:1020A00002D3701C01D010E07EB1E08E0028CDD1AB
:1020B000E08F0028CAD142463146204601F0B0F9EF
:1020C00028B101272020606507E0032705E0A0680C
:1020D00018B92068C16880680090012084F8510018
:1020E000002084F8500038462CE74FF0E021042807
:1020F000086903D020F004000861704740F0040034
:10210000FAE710B5401EB0F1807F01D3012010BD69
:102110004FF0E02460610F21601701F064FD0020A2
:10212000A06107202061002010BD704770477047F4
:1021300070B50446006801694FF00005C94389077E
:1021400015D4C168C943890711D4E91E0161012072
:102150002077206880698007204602D0FFF7E7FFDC
:1021600004E000F098F8204600F096F82577206803
:102170000169C943490717D4C168C943490713D442
:102180006FF004010161022020772068806910F45B
:10219000407F204602D0FFF7CAFF04E000F07BF842
:1021A000204600F079F8257720680169C9430907BE
:1021B00016D4C168C943090712D46FF00801016140
:1021C000042020772068C0698007204602D0FFF7EE
:1021D000AEFF04E000F05FF8204600F05DF82577E0
:1021E00020680169C943C90617D4C168C943C90633
:1021F00013D46FF010010161082020772068C069B6
:1022000010F4407F204602D0FFF791FF04E000F079
:1022100042F8204600F040F8257720680169C9435C
:10222000C90708D1C168C943C90704D1891E016122
:10223000204600F033F820680169C943090609D433
:10224000C168C943090605D46FF0800101612046C9
:10225000FFF76BFF20680169C943490609D4C168CB
:10226000C943490605D46FF040010161204600F0E2
:102270001FF820680169C94389060BD4C168C943A6
:10228000890607D46FF0200101612046BDE8704047
:10229000FFF74CBF70BD70477047000000680349EE
:1022A000884201D101F07AB8704700000010004068
:1022B0007047704770B5026804461068D16853696A
:1022C00010F00F0F51D003F0010501F49076354363
:1022D0005DD0C20705D0CA0503D5E26B42F001020A
:1022E000E263420705D5DA0703D0E26B42F002024F
:1022F000E263820705D5DA0703D0E26B42F00402FD
:10230000E263020705D5DA0703D0E26B42F0080268
:10231000E263E26B002A34D0800604D5880602D539
:10232000204601F09DF920684069E16BC0F3801000
:1023300001F008010143204624D001F083F9206810
:10234000416949061AD5416921F040014161606B3C
:10235000A0B11B490165606BFEF7C3FF002810D0D8
:10236000606B016DBDE87040084783060FD58B0692
:102370000DD52046BDE8704001F072B92046FFF748
:1023800098FF70BDFFF795FF0020E06370BD030666
:1023900006D50B0604D52046BDE8704001F002BB0F
:1023A0004006F3D54806F1D5D168204621F040011A
:1023B000D160202184F8391000F00CFA70BD0000C3
:1023C0003536000870B5040004D094F839000025B3
:1023D00010B106E0012070BD84F83850204600F0AE
:1023E00023F8242084F839002068C16821F40051C2
:1023F000C160204601F080F92068016921F4904114
:1024000001612068416921F02A0141612068C168A9
:1024100041F40051C160E563202084F8390084F85C
:102420003A00002070BD00002DE9F04F87B005464E
:1024300014216846FDF780FFA949A84BD5F800C0D4
:102440000024A74F14390222012603204FF0070B66
:102450004FF480694FF4807A9C454CD13B6843F03F
:1024600010033B603B6803F0100305930B6843F0D7
:1024700002030B600B6803F0020305930B6843F043
:1024800001030B600968CDE9026001F001010591CB
:102490008021CDE9001290465F46CDF810B0694624
:1024A0009048FFF7B1F87002CDE900080320CDE9AC
:1024B0000260694604978C48FFF7A6F88C4E8B485B
:1024C00030604FF00060C6E90104C6E90349746159
:1024D000C6E9064A346230467462FEF7E5FF08B189
:1024E000FEF7A0FA6E63002211462520B563FFF7C0
:1024F000E5F925203DE07A4BDFF8F8811B1FDFF876
:10250000F8E1C4453AD11F6847F400371F601B68E3
:1025100003F4003305930B6843F008030B6009686C
:1025200001F00801059160218DE84600CDE9030B1B
:1025300069467046FFF768F86D4E70486036306047
:102540004FF00060C6E90104C6E903497461B46153
:10255000F461346230467462FEF7A6FF08B1FEF7FC
:1025600061FA6E63002205212620B563FFF7A6F904
:102570002620FFF795F907B0BDE8F08FDFF88081DE
:10258000C44532D11F6847F480271F601B6803F4DD
:10259000802305930B6843F008030B60096801F082
:1025A000080105914FF440718DE84600CDE9030B19
:1025B00069467046FFF728F84D4E5048C0366038DF
:1025C00030604FF00060C6E90104C6E90349746158
:1025D000C6E9064A346230467462FEF765FF08B108
:1025E000FEF720FA6E63B563C5E7DFF818814FF098
:1025F000080BC44536D13B6843F020033B603B6881
:1026000003F0200305930B6843F040030B60096857
:1026100001F0400105914FF484418DE84600CDE979
:10262000030B69463848FEF7EFFF3048374E18383D
:1026300030608005C6E90104C6E903497461C6E952
:10264000064A346230467462FEF72EFF08B1FEF788
:10265000E9F96E63002201214720B563FFF72EF9E7
:10266000472086E72A4FBC4585D11F6847F00047C1
:102670001F601B6803F0004305930B6843F01003D1
:102680000B6009688DE8450001F01001CDE904B147
:10269000039069461F48FEF7B7FF1C4E1748603687
:1026A000183030600005C6E90104C6E903497461C9
:1026B000C6E9064A4FF48030C6E908043046FEF702
:1026C000F3FE08B1FEF7AEF96E6300220521532038
:1026D000B563FFF7F3F853204BE70000001001400B
:1026E00044380240000402400000024040640240BE
:1026F000F40B002000440040000C024088600240BF
:10270000004800400014014000180240140D002051
:10271000007C00400010024070472DE9F843044659
:1027200090F839001F4616460D46202850D1A5B115
:102730009EB194F8380001284AD0012084F838006E
:102740004FF00008C4F83C80212084F83900FFF7DE
:1027500047F8A6848146E68426E00120BDE8F88398
:10276000E08C401EE084A0684B46B0F5805F4FF0DF
:1027700000024FF080012046009703D001F043F99A
:10278000E8B90DE001F03FF9C8B928882168C0F325
:1027900008004860206908B16D1C05E0AD1C03E02D
:1027A000216815F8010B4860E08C0028D8D14B4611
:1027B000002240212046009701F025F908B10320AE
:1027C000CCE7202084F8390084F838800020C5E761
:1027D0000220C3E77047000000B58BB00020012144
:1027E000019002900891CDE90601049000900E211D
:1027F00003900991059069460248FEF7B1F90BB0C4
:1028000000BD0000F806002000B58BB000200121BB
:10281000019002900891CDE9060104900090039088
:102820000E2009900F20059069460248FEF798F99E
:102830000BB000BD20070020FEE700007FB500249C
:102840000E2269463B2000F01DFABDF8000041BA97
:1028500027480180BDF8021049BA4180BDF8041034
:1028600049BA8180BDF8061049BAC180BDF8081088
:1028700049BA0181BDF80A104ABA4281BDF80C106C
:1028800049BA0DB200F164018581CB880B818B8838
:10289000CB804B888B800B884B800A805FF00002D6
:1028A00031F81230521C2344D2B21CB2052AF7D39D
:1028B000052694FBF6F141810D4900236E31CA884B
:1028C0000A818A88CA804A888A800A884A800D805C
:1028D0004FEA030231F81240521C2344D2B21BB219
:1028E000052AF7D393FBF6F1818141827FBD000079
:1028F00078040020E0B502F069F97E497E4B4A7801
:10290000522A02D0532A0DD106E0D1F80220DA6013
:10291000D1F806201A6105E0D1F802205A61D1F8F9
:1029200006209A610A7B522A02D0532A0DD106E072
:10293000D1F80D20DA60D1F811201A6105E0D1F844
:102940000D205A61D1F811209A61CA7D522A02D015
:10295000532A09D104E08A69DA60C969196103E080
:102960008A695A61C969996163491431B1F90220D0
:1029700000EE102AF8EEC00A9FED600A5D4A60EE94
:10298000800A703AC2ED010AB1F9041001EE101A82
:10299000A2F13801B8EEC11A21EE000A81ED010A58
:1029A00091F83550052D59D9062581F8355091ED0E
:1029B000021A534E534F30EE411AF7EE001A11EE41
:1029C000105A81ED001AB54204D991ED041A31EE86
:1029D000211A07E011EE105ABD4205DD91ED041AEF
:1029E00031EE611A81ED041AD1ED042A9FED462AD9
:1029F000B0EE401A02EE821AD1ED032A31EE621ACD
:102A0000DFED422A21EE221A81ED051A92ED021A1B
:102A100030EEC11A11EE105A82ED001AB54204D9F7
:102A200092ED041A31EE211A07E011EE105ABD4260
:102A300005DD92ED041A31EE611A82ED041AD2ED31
:102A4000041AB0EE601A001B01EE821AD2ED031ACE
:102A500031EE611A82ED051A588003E081ED030A18
:102A6000C2ED030A81ED020AC2ED020A91F83500B7
:102A70009FED282A401C81F835001F49B0EE421A0C
:102A80000C31B1F9000000EE100A1A48F8EEC00A45
:102A90009FED1F0A383860EE800AC0ED070AB1F9D1
:102AA000022000EE902AF8EEE00A60EE800AC0ED07
:102AB000080AB1F9041000EE901AF8EEE00A60EE90
:102AC000800AC0ED090A90ED0C0A00F02EF880EDA6
:102AD000090AD0ED080A90ED0B0AB0EE421A00F098
:102AE00024F880ED080A80ED0B0A90ED090A80EDCC
:102AF0000C0AE0BDE003002014000020A0FEB33B60
:102B0000000034C3000034430000B4430000B64169
:102B100001007A3D00002F44F7EE001A71EEC11A51
:102B200021EE800A00EE810A704770EEC01AF5EEC1
:102B3000C01AF1EE10FA03DCF1EE601A71EEC01A61
:102B4000F4EEC11AF1EE10FA01DCB0EE600A704743
:102B50002DE9F04186B00025142232496846FDF780
:102B6000D2FB6420FEF72DFD752000F063F82E4C9B
:102B70006E46207006EB4500417816F8150000F00F
:102B8000AFF80120FEF71DFD6D1CEDB20A2DF1D34B
:102B9000264E002506F1340706F14C08FFF74EFEDD
:102BA000B6F90C00052D00EE100A07EB8500B8EE13
:102BB000C00A80ED000AB6F90A0000EE900A08EBA0
:102BC0008500F8EEE00AC0ED000A94ED021A30EE3E
:102BD000010A84ED020A94ED031A70EE810AC4ED35
:102BE000030A17D1B1EE081A1048C0EE011A1A30C4
:102BF000BDEEE10A10EE101A80EE810A8181BDEE71
:102C0000C00A10EE101A9FED0A0A418184ED020AF3
:102C100084ED030A6D1CEDB2062DBFD306B0002073
:102C2000BDE8F081644D00083400002078040020E5
:102C300000000000F8B5104E044600224021304646
:102C4000FEF7C8FD44F080000C4C3725E21C2071D3
:102C50000123511C0A480095FFF756F9E21C012395
:102C6000511C07480095FFF74FF9012240213046DB
:102C7000FEF7B0FDE078F8BD0014024034000020FB
:102C80009C090020F8B5134F15460E460446002255
:102C900040213846FEF79EFD0F4944F0800037245E
:102CA00088711031A1F10B02087001230A390B4819
:102CB0000094FFF729F908492B463246103107489E
:102CC0000094FFF721F9012240213846FEF782FDEA
:102CD0000020F8BD00140240340000209C090020B0
:102CE000F8B5114F0E460446002240213846FEF743
:102CF00071FD04F07F000D4C3725621CA07001238C
:102D0000511C0B480095FFF7FFF8A670621C0123C9
:102D1000511C07480095FFF7F7F80122402138467B
:102D2000FEF758FD0020F8BD0014024034000020DA
:102D30009C090020104810B50E4901600621416031
:102D400000214FF480328160C0E903124FF4401239
:102D500042610176417601228276C276017741771F
:102D6000FEF7F7F8002803D0BDE81040FDF75ABE83
:102D700010BD000000640040F8060020104810B5A7
:102D80000E4901600621416000214FF480328160CC
:102D9000C0E903124FF440124261017641760122EC
:102DA0008276C27601774177FEF7D3F8002803D008
:102DB000BDE81040FDF736BE10BD000000680040C1
:102DC00020070020214808B5016841F48001016016
:102DD000016801F480010091016841F40011016073
:102DE0000068002200F40010009011460C20FEF74D
:102DF00065FD0C20FEF754FD002205211020FEF792
:102E00005DFD1020FEF74CFD002205211120FEF78C
:102E100055FD1120FEF744FD002205213920FEF763
:102E20004DFD3920FEF73CFD002211463A20FEF709
:102E300045FD3A20FEF734FD002205213C20FEF737
:102E40003DFDBDE808403C20FEF72ABD3038024079
:102E500000B587B01C2206496846FDF754FA0021E8
:102E6000684600F075FF0349086007B000BD000028
:102E700094500008800000202DE9F04F87B0142105
:102E80006846FDF759FA6F480024016841F01001C7
:102E90000160016801F010010591016841F04001F5
:102EA0000160016801F040010591016841F00101F4
:102EB0000160016801F001010591016841F0020122
:102EC0000160016801F002010591016841F008010B
:102ED0000160016801F008010591016841F4807109
:102EE0000160016801F480710591016841F0800181
:102EF0000160016801F080010591016841F0200145
:102F000001600068012200F0200005903C214E483D
:102F1000FEF760FC4FF4FF79012249464B48FEF76B
:102F200059FC4FF4006A012251464948FEF752FC11
:102F30004FF4804B012259464648FEF74BFC0326CE
:102F4000022702AACDE900674FF0080882E8500185
:102F500069463F48FEF758FB84200125CDE900056E
:102F6000694602943C48FEF74FFB3C200090CDE9B7
:102F70000154694634480394FEF746FBCDF80090AF
:102F80000396CDE9015469463048FEF73DFB042025
:102F9000CDE90004694631480294FEF735FB402034
:102FA0000090CDE9015469462A480394FEF72CFBB2
:102FB000102000902A48CDE9010469462948FEF70F
:102FC00023FB6802CDE90004CDE9024669462248A8
:102FD000FEF71AFBF001CDE9000702AA694682E874
:102FE00050011B48FEF710FBCDF800A0CDE90154BD
:102FF000694617480394FEF707FBCDF800B0CDE90A
:103000000154694613480394FEF7FEFA0022052195
:103010000820FEF753FC0820FEF742FC00220521A1
:103020000A20FEF74BFC0A20FEF73AFC002205219D
:103030001720FEF743FC1720FEF732FC07B0BDE86F
:10304000F08F000030380240001C0240001802409F
:103050000010024000140240002002400004024020
:103060000000211000000240104810B50E49016018
:103070004FF48271416000218160C1604FF40072A1
:103080000161C0E905123022C0E907214162816275
:103090000A21C162FEF7C2FE002803D0BDE810403D
:1030A000FDF7C0BC10BD0000005001409C0900208D
:1030B0000C4810B50A4901604FF4E131416000212C
:1030C00081600C22C160C0E904128161C161FFF717
:1030D00079F9002803D0BDE81040FDF7A3BC10BD6E
:1030E000007C0040B40B00200C4810B50A49016078
:1030F0000B494160002181600C22C160C0E90412CB
:103100008161C161FFF75EF9002803D0BDE810407E
:10311000FDF788BC10BD000000100140B40A00207B
:10312000A08601000C4810B50A4901604FF4E13156
:103130004160002181600C22C160C0E904128161FC
:10314000C161FFF73FF9002803D0BDE81040FDF74B
:1031500069BC10BD00440040F40A00200C4810B5C2
:103160000A4901604FF4E1314160002181600C2285
:10317000C160C0E904128161C161FFF723F9002831
:1031800003D0BDE81040FDF74DBC10BD0048004025
:10319000340B00200C4810B50A4901604FF4E131AE
:1031A0004160002181600C22C160C0E9041281618C
:1031B000C161FFF707F9002803D0BDE81040FDF713
:1031C00031BC10BD00140140740B0020FEE77047B5
:1031D00030B4034C8467034CC46730BC00F0D0BEED
:1031E000813F00088F3F000810B50B4C01220421DD
:1031F0002046FEF7EFFA012208212046FEF7EAFA00
:10320000012210212046FEF7E5FA20460122BDE802
:1032100010402021FEF7DEBA001C02402DE9F047E5
:10322000554F544E0025DFF85491DFF854817C68E7
:1032300093E0705DA5287DD174190521204601F029
:10324000B9FB002876D0B4F801102046093101F00E
:1032500093FB00287FD0B4F80500A0F50071013978
:103260001DD1E17989F80010217A89F80110B4F8AC
:103270000910A9F80210B4F80B10A9F80410B4F85A
:103280000D10A9F80810B4F80F10A9F80C10B4F834
:103290001110A9F80A10B4F81310A9F80E10B4F818
:1032A0000500A0F50071023917D1B4F81110A9F882
:1032B0001010B4F81310A9F81210B4F80910A9F8F6
:1032C0003210D4F80B10C9F83410B4F80F10A9F864
:1032D0003810B4F80710A9F83010B4F80500A0F5BC
:1032E000007103390FD1D4F80710C9F82010D4F8B1
:1032F0000B10C9F82410D4F80F10C9F82810D4F80E
:103300001310C9F82C10B4F80500B0F5017F02D1F4
:10331000E17989F80610B4F80500A0F500710739C5
:1033200015D1E079012808D1217A89F81410D4F850
:10333000091000E00FE0C9F81810E079022806D162
:10334000217A89F81510D4F80910C9F81C10607892
:1033500009352844C5B26D1CEDB2B8F800008542AD
:10336000FFF467AF7C60BDE8F04764210148FCF7DB
:10337000E3BF0000E003002054000020F004002020
:103380003000002010B50446FDF74EFB024800EB6C
:10339000840080ED000A10BD080100200248816809
:1033A000491C816070470000F400002070B51B4884
:1033B00000F11201427994090C81C2F301134B818F
:1033C0000188C1F30A0500F11E010D804578EE0861
:1033D000857846EA4516C6F30A064E80C678AD09DA
:1033E00045EA8606057946EA85266D08C6F30A068B
:1033F00045EAC2128E80C2F30A02CA800C814B8158
:10340000C2888A810289CA8142890A82027B8A74BF
:10341000427BCA74C089888270BD000044040020C9
:1034200038B50B46009204460022802100F008F8CF
:10343000002804D0606D40F020006065032038BD96
:103440002DE9F0411D4617460E460446DDF818806A
:1034500008E0681C06D0FEF7C3F9A0EB0800A842FC
:103460000BD255B12068806836EA000030D00020C9
:10347000B842EED10020BDE8F0812068416821F01B
:10348000E00141606068B0F5827F0BD1A068B0F5C3
:10349000004F02D0B0F5806F04D12068016821F0A0
:1034A00040010160A06AB0F5005F09D120680168A1
:1034B00021F4005101602068016841F4005101606D
:1034C000012084F85100002084F850000320D2E746
:1034D0000120CDE710B5FEF789F901F069FB01285D
:1034E00003D0BDE8104001F0F5BA10BD30B593B07F
:1034F00030216846FCF720FF14210CA8FCF71CFFC4
:103500001A480025016841F080510160006800F010
:10351000805011901648016841F4404101600068F4
:10352000022400F44040119001200090000401901A
:103530008001CDE906400C2008904FF4A870CDE939
:10354000090404200B906846FEF7DAFA0CA90F2054
:1035500081E831004FF4A0500F90E0021090052157
:103560000CA8FEF7DDF913B030BD00004038024072
:10357000007000401048016841F4700101600F487C
:10358000016841F0010101600C4A0021083211601C
:1035900002680B4B1A400260031D0A4A1A60026857
:1035A00022F48022026005480C300160024958066E
:1035B000803908607047000088ED00E00038024064
:1035C000FFFFF6FE103000240148FEF7B1BD0000F9
:1035D000F40900200148FEF7ABBD0000740A00208A
:1035E00038B5114801680A68C968C2F30012002A98
:1035F00019D00E4C21680A6822F001020A600068A6
:10360000016840680090206840680949C0F12100C5
:103610000880FFF76FF92168212048602068016861
:1036200041F00101016038BDB40B0020740D002091
:103630003000002010B5806B0021C185C184FEF7E9
:1036400038FE10BD0168CA6822F49072CA60016831
:103650004A6922F001024A61202180F83A1070473D
:1036600010B590F83A10222901D0022010BD8168CF
:10367000B1F5805F11D00169002901681FD0496848
:1036800001F07F03816A4A1C82620B70C18D491E62
:103690000904090CC18518D02BE00269816A002A4F
:1036A0000268526805D0D2B20A80816A491C8162E0
:1036B000ECE7C2F308020A80816A891CF7E74A68CE
:1036C000816A4B1C83620A70E0E70168CA6822F0D5
:1036D0002002CA600168CA6822F48072CA60016868
:1036E0004A6922F001024A61202180F83A10FFF76E
:1036F00013F8002010BD00002DE9F04104460068D9
:103700000169E26821F44051114301612169A06817
:10371000E26908436169114322680843D16849F2AC
:103720000C6399430143D16020684169A26921F487
:10373000407111434161E2696425B2F5004F974839
:10374000974922684FF032083FD08A4201D0824226
:103750007CD1FEF793F900EBC00101EB001061682A
:103760008900B0FBF1F6FEF789F900EBC00101EB2F
:10377000001061688900B0FBF1F0B0FBF5F06FF06C
:103780001801484306EB800108EB0110B0FBF5F08F
:1037900000F0F006FEF772F900EBC00101EB00103B
:1037A00061688900B0FBF1F0B0FBF5F006EB0016A4
:1037B000FEF764F900EBC00101EB001061688900BD
:1037C000B0FBF1F7FEF75AF9D2E08A4201D082420B
:1037D0003DD1FEF753F900EBC00101EB0010616829
:1037E0004900B0FBF1F0B0FBF5F00601FEF746F939
:1037F00000EBC00101EB001061684900B0FBF1F77C
:10380000FEF73CF900EBC00101EB001061684900D4
:10381000B0FBF1F0B0FBF5F06FF01801484307EB97
:10382000800108EBC100B0FBF5F000F0F80006EBFA
:103830004006FEF723F900EBC00101EB00106168C0
:103840004900B0FBF1F7FEF719F93CE055E0FEF74F
:1038500005F900EBC00101EB001061684900B0FB05
:10386000F1F0B0FBF5F00601FEF7F8F800EBC0014F
:1038700001EB001061684900B0FBF1F7FEF7EEF8CC
:1038800000EBC00101EB001061684900B0FBF1F0F2
:10389000B0FBF5F06FF01801484307EB800108EB2F
:1038A000C100B0FBF5F000F0F80006EB4006FEF7B3
:1038B000D5F800EBC00101EB001061684900B0FBD6
:1038C000F1F7FEF7CBF800EBC00101EB00106168E7
:1038D0004900B0FBF1F0B0FBF5F06FF01801484380
:1038E00007EB800108EBC100B0FBF5F000F007002A
:1038F000216830448860BDE8F081FEF7AFF800EB46
:10390000C00101EB001061688900B0FBF1F6FEF721
:10391000A5F800EBC00101EB001061688900B0FB65
:10392000F1F0B0FBF5F06FF01801484306EB8001B1
:1039300008EB0110B0FBF5F000F0F006FEF78EF892
:1039400000EBC00101EB001061688900B0FBF1F0F1
:10395000B0FBF5F006EB0016FEF780F800EBC001B7
:1039600001EB001061688900B0FBF1F7FEF776F813
:1039700000EBC00101EB001061688900B0FBF1F0C1
:10398000B0FBF5F06FF01801484307EB800108EB3E
:103990000110B0FBF5F000F00F00A9E700140140A2
:1039A0000010014090F83910212901D00220704701
:1039B0008168B1F5805F016A0BD04A1C026202681F
:1039C00009785160C18C491E0904090CC1840ED0CC
:1039D00017E009880268C1F30801516001690029F4
:1039E000016A02D0491C0162ECE7891CFBE701680F
:1039F000CA6822F08002CA600068C16841F04001D4
:103A0000C160002070472DE9F041984617460E46E8
:103A10000446069D1DE0681C1BD02DB1FDF7E0FE9D
:103A2000A0EB0800A84214D92068C16821F4D07125
:103A3000C1602068416921F001014161202084F8C2
:103A4000390084F83A00002084F838000320BDE8EB
:103A5000F0812068006836EA000004D00020B842F7
:103A6000D9D00020F3E70120F9E7000078B4354A07
:103A7000106801684069C1F30011002960D0324B21
:103A80001868016821F00101016030491868884216
:103A90000AD02F49884207D02C496031884203D090
:103AA0002B496031884201D1202122E0274C183473
:103AB000E114A0421DD0264C1834A04219D0234C4A
:103AC0007834A04215D0224C7834A04211D01F4C3B
:103AD00089023034A0420CD01D4C3034A04208D0B2
:103AE0001A4C9034A04204D0194C9034A04200D01B
:103AF0008901174C4834A04202D9154C241F05E017
:103B0000124CA834A04203D9114C083C216008E0B3
:103B10000E4D0E4C4835103CA84201D9E16000E042
:103B2000A160122141601868016841F00101016043
:103B3000106801684068009078BC0248FEF7BABB84
:103B400078BC7047B40A0020F40B002010600240DB
:103B5000106402400148FEF7ADBB0000F40A0020EB
:103B600038B5114801680A68C968C2F30012002A12
:103B700019D00E4C21680A6822F001020A60006820
:103B8000016840680090206840680949C0F16400FD
:103B90000880FFF743FB2168212048602068016806
:103BA00041F00101016038BD740B0020140D0020AC
:103BB00030000020FEE72DE9F04115460E4607468D
:103BC000002405E0315D384600F006F8641CE4B2DC
:103BD000AC42F7D3BDE8F08113B50A23012201A955
:103BE000FEF79BFD1CBD0907090E002804DB00F150
:103BF000E02080F80014704700F00F0000F1E02092
:103C000080F8141D704702E008C8121F08C1002A7E
:103C1000FAD170477047002001E001C1121F002A4D
:103C2000FBD1704710B50420FEF75FFAFDF710FFD7
:103C30000249B0FBF1F00249087010BD40420F008C
:103C40007800002070B54FF0E02400226569094932
:103C5000A36909784843A1699942FCD002D2A3EB39
:103C6000010302E0A5EB010633441A440B468242ED
:103C7000F1D370BD7800002010B558B1084C491E32
:103C80000BD310F8013B5340DBB234F8133083EA16
:103C90001222F4E74FF6FF7010BD104610BD000071
:103CA000784E000810B5064C04E000BF10F8013B48
:103CB0005340E25C491E89B2F8D2104610BD0000A4
:103CC000784D000810B5038943810A8852BA0281F1
:103CD0004C88D31A64BA04808C88B3F5805F64BAC8
:103CE000448089798171016901DD491E03E013F582
:103CF000805F01DA491C016102EB41318289891A36
:103D0000416110BD098849BA018181817047FDF781
:103D100075FDFFF7EBFB00F0E9FCFCF755FDFFF745
:103D200097F800F003FD00F00EF8FEE701460020D2
:103D3000842900D0C81C704710B501B9012100F0DA
:103D400049FD002010BD10B500F08AFD002010BD17
:103D50007FB50D4604464169B0F9080081B1A169FB
:103D600071B1FFF7E3FFD4E905128DE80700D4E94C
:103D700000102B46226900F0F0FE039004B070BDE5
:103D8000FFF7D4FF03A9CDE90001208A2B4682B2B8
:103D9000D4E9001000F0B4FE012801D00020EDE7C6
:103DA0000398EBE700B530EEC01A80ED080AC0EDCD
:103DB000050A80ED0B1AD0ED191A01469FED6E2A07
:103DC00030EEC00AF5EEC01AB1EE400AF1EE10FA7C
:103DD0000ED0B5EEC01AF1EE10FA02DDF0EE410A97
:103DE00001E0F0EE400AF4EEE10AF1EE10FA12DC26
:103DF000D1ED1A0AF5EEC00AF1EE10FA0ED0B5EECA
:103E0000C01AF1EE10FA01DDB0EE410AB4EEE00A9C
:103E1000F1EE10FA02D2B0EE420A00BDCA6E01F114
:103E20003400032A02D0042A43D084E091ED000A32
:103E300020EE010A81ED0C0A91ED0D0AD1ED010A87
:103E400000EE810A81ED0D0A91ED0A0AD1ED020A18
:103E500031EE400A60EE200AC1ED130A91ED120A1C
:103E60009FED461AFEF758FE81ED0E0A91ED1D0AF0
:103E7000B8EE400AFCF792FC91ED0C0AD1ED0D0A68
:103E800001F1500030EE200AD1ED0E0A30EE200A8A
:103E900081ED140A91ED1C0AB8EE400AFCF77EFC95
:103EA00091ED140A81ED150A91ED0E0A81ED120AC9
:103EB00041E091ED0A0AD1ED001A71EE400A60EE80
:103EC000A10AC1ED0C0AD1ED010A60EE810AC1ED33
:103ED0000D0AF0EE000A00EE601A91ED090AD1ED2C
:103EE000020A31EE000A20EE200A81ED0E0A91ED61
:103EF0001D0AB8EE400AFCF751FC91ED0C0AD1ED19
:103F00000D0A01F15C0030EE200AD1ED0E0A30EE10
:103F1000200A81ED160AD1ED180A30EE800A81EDF3
:103F2000170A91ED1C0AB8EE400AFCF737FC91ED38
:103F3000170A81ED180A91ED0A0A81ED090A91ED3F
:103F40000B0A81ED0A0A91ED070A81ED060A91ED4F
:103F5000080A81ED070A91ED040A81ED030A91ED4B
:103F6000050A81ED040AC86E032802D091ED170AF4
:103F700000BD91ED140A00BD000000009A99193FA0
:103F800000F16C0C8CE80E0080EC030A704780ECAA
:103F9000030A70472DE9F041184C0F460546666943
:103FA0002068001D00F052FB38B9206890F82C10F2
:103FB00001208840A1698143A161681C07D137B104
:103FC0002168BDE8F0410E48091D00F083BB206860
:103FD0003544B5424560216805D2A068BDE8F0418E
:103FE000091D00F05FBB6068091D00F05BFB206BE2
:103FF000854200D22563BDE8F081000094000020D6
:10400000B00E00202DE9F041054600F06FFB2E4C6C
:104010002069401C206120682C4F10B1E06940B33A
:104020002DE025602069012829D1002606EB8600B5
:1040300007EB800000F028FB761C072EF6D3234800
:104040008C3000F021FB2148A03000F01DFB1F4800
:10405000B43000F019FB1D48C83000F015FB1B48B8
:10406000DC3000F011FB19488C3060601430A06027
:1040700005E02068E96AC06A884200D82560E06AE5
:10408000401CE062E96A0120A26988401043A061F7
:1040900001EB810007EB8000291D00F01BFB00F005
:1040A00045FBE06900280CD02068E96AC06A8842B4
:1040B00007D207494FF080500860BFF34F8FBFF31E
:1040C0006F8FBDE8F081000094000020D40D002027
:1040D00004ED00E010B5044690F8510058B10128F5
:1040E0000CD002280FD0502080F31188BFF34F8FDF
:1040F000BFF36F8FFEE7206B00F02CFB2046BDE87E
:10410000104000F027BB10BD10484FF4705142071B
:1041100006D0C01D0D4920F00700411AC1F57051AD
:104120000B4A00230144C2E900030839103A21F088
:10413000070111604B600B600B1AC0E9001393601C
:104140004FF000405360D06070470000C40E002064
:10415000E0000020144E154CA6F1C8074FF080581F
:10416000DFF84C9012E000BF00F0C0FAF068C568BC
:10417000281D00F06BFA2069401E2061E068401E97
:10418000E06000F0D3FA2846FFF7A4FFE0680028BB
:10419000EAD138680128F9D9C9F80080BFF34F8FF8
:1041A000BFF36F8FF2E700009C0E00209400002008
:1041B00004ED00E02DE9F0479A46DDE909848146E7
:1041C0006FF00303206B03EB82021044089D20F084
:1041D0000706700707D0502080F31188BFF34F8F78
:1041E000BFF36F8FFEE723180A5C83F834200A5C64
:1041F00012B1401C1028F6D3002784F84370072D15
:1042000000D30625E562C4E91157201D00F047FAE6
:1042100004F1180000F043FA2461C5F1070064625C
:10422000A061E76484F8507052464946304600F079
:10423000BFF82060B8F1000F01D0C8F80040BDE819
:10424000F087000030B5114900E011460A6882424B
:10425000FBD34B685C18844203D140681844486023
:10426000084643681C18944209D1084C103C246845
:10427000A24209D052681A4442600A681268026079
:10428000814200D0086030BD0460F9E7E000002002
:1042900006484168096829B14168C968C968496820
:1042A000016370474FF0FF31FAE7000094000020EF
:1042B00008484068401C4FF0500080F3118804D03B
:1042C000BFF34F8FBFF36F8FFEE7BFF34F8FBFF387
:1042D0006F8FFEE7E80000202DE9F041054600273A
:1042E00000F0F4FA314E306808B9FFF70DFFF068BE
:1042F00005424BD1C5B3083568070ED005F007005D
:10430000C0F108000544680707D0502080F31188E9
:10431000BFF34F8FBFF36F8FFEE72DB370688542F9
:1043200034D82248103001460C6801E020460C4683
:104330006168A94202D221680029F7D131688C4214
:1043400024D007682168016060680837411B102984
:104350000FD96019420708D0502080F31188BFF3AD
:104360004F8FBFF36F8FFEE710E041606560FFF78E
:1043700069FF61687068401A7060B268904200D24C
:10438000B060F06801430020C4E9000100F088FC3F
:10439000780707D0502080F31188BFF34F8FBFF309
:1043A0006F8FFEE73846BDE8F0810000D0000020A6
:1043B00010B5031F4FF080741C601B1F21F001011A
:1043C0001960191F044B0B6014390A60091F6FF044
:1043D000020244380A6010BDB14200081FB500F067
:1043E000F5FB039000F0E4F8674FDFF8A0A1DFF8D9
:1043F000A0B1684DDFF8A09100264FF4FA6800BF25
:10440000FEF7D4FF0520FDF7DCF83889032804D037
:1044100000231A46194600968FE0604C41F27C500A
:10442000A060B5F9000000EE100AB8EEC00ADFED9A
:104430005C0A5C48FFF7B6FCB5F93C00D4ED020A13
:1044400000EE100A5248F8EEE00AB8EEC00A8038D2
:10445000FFF7A8FC7889032803D02178012903D02D
:1044600035E00120207032E0022830D14E496068EA
:104470000844606026709AED050A00EE900A4448F0
:10448000B8EEC00AF8EEE00AFFF78CFC9BED140AC8
:10449000FDEEC00AC4ED030ABAF90000F8EEE00A26
:1044A00000EE100A3A48B8EEC00A8030FFF77AFCF6
:1044B000374800968030002390ED140A1A46BDEE6E
:1044C000C00A10EE100A01B23848FCF70FFA9AED54
:1044D000050AD4ED010A2E48B8EEC00AF8EEE00A4B
:1044E000FFF760FC9BED140AFDEEC00AC4ED030A61
:1044F000BAF90000F8EEE00A00EE100A2448B8EE1F
:10450000C00A8030FFF74EFC2648009690ED340A32
:10451000BDEEC00A10EE101A90ED140A0BB2BDEEFB
:10452000C00A10EE100A02B21948803090ED140A49
:10453000BDEEC00A10EE100A01B21C48FCF7D6F915
:10454000ADF80480288801AC4042ADF80600A88F81
:10455000ADF80800B9F83200ADF80A00082120468D
:1045600000F0EAF90821204600F0E6F9082120468B
:1045700000F0E2F90821204600F0DEF9032103A84B
:10458000FFF7DAFB3CE70000560400201406002089
:10459000380200209C050020F004002004000020C8
:1045A00000E0ABC538010020A008FDFF2007002077
:1045B0002DE9F04141F288352DED048BAC002B46FE
:1045C0009FED1C8ADFED1C8A9FED1C9AB0EE481A05
:1045D000F0EE680AB0EE490A224603211848FEF7B9
:1045E000F7FD1748B0EE481AF0EE680AB0EE490A37
:1045F0002B46224603218030FEF7EAFD114E9FED47
:10460000128A002441F2707706EBC410B6EE001A4D
:10461000F0EE480AB0EE000A2B463A460321FEF7B8
:10462000D7FD641CE4B2022CEED3BDEC048BBDE8D4
:10463000F08100003333333F000000009A99993E27
:1046400038020020380100200AD7233CD0E901328B
:1046500001699A60D0E901235A604A68824201D117
:1046600082684A60002202610868401E086008688B
:1046700070470000034B036003F154000860802082
:10468000106070474807002000F108014FF0FF322A
:10469000C0E90112C1600161002101607047002181
:1046A0000161704730B50B685A1C02D000F1080256
:1046B00002E0026904E02246546825689D42FAD966
:1046C00053684B6099608A60516008610168491CB9
:1046D000016030BD42684A6093688B60936859609E
:1046E000916008610168491C01607047502080F3A7
:1046F0001188BFF34F8FBFF36F8F0A494868401C82
:10470000486001280CD10848006810F0FF0F07D05E
:10471000502080F31188BFF34F8FBFF36F8FFEE7F8
:1047200070470000E800002004ED00E008494868F8
:1047300028B1401E486001D180F311887047502095
:1047400080F31188BFF34F8FBFF36F8FFEE7000038
:10475000E800002070B5002827D0144DA0F108040F
:104760006168E868014207D1502080F31188BFF3E7
:104770004F8FBFF36F8FFEE722683AB1502080F36E
:104780001188BFF34F8FBFF36F8FFEE781436160E6
:1047900000F09CF860686968084468602046FFF78C
:1047A00051FDBDE8704000F07BBA70BDD000002024
:1047B0004FF0E02000210161816105494FF47A72D8
:1047C0000968B1FBF2F1491E41610721016170479F
:1047D0009000002070B50D4604000BD095B11E4A24
:1047E000906BB8B1502080F31188BFF34F8FBFF3A7
:1047F0006F8FFEE7502080F31188BFF34F8FBFF318
:104800006F8FFEE7502080F31188BFF34F8FBFF307
:104810006F8FFEE700F05AF85269236859199342E6
:1048200004D98B420AD9914202D807E08B42FAD9C7
:10483000881A21600021FFF7ADFB00E0216000F045
:104840002FFA002807D105494FF080500860BFF3C8
:104850004F8FBFF36F8F70BD9400002004ED00E018
:1048600010B586B00024039405AA04A903A80494F3
:10487000FFF700FFDDE903010094CDE901100023FB
:104880000EA11048059A00F068F90F490028486306
:1048900011D0502080F31188BFF34F8FBFF36F8F7B
:1048A0004FF0FF3008630120C8614C6106B0BDE8DD
:1048B000104000F095B806B010BD000049444C45CA
:1048C0000000000055410008940000200248816B60
:1048D000491C816370470000940000201448816BDC
:1048E00011B1012141627047002141628169B1FA31
:1048F00081F1C1F11F0101EB81020E4951F8223013
:104900006BB101EB820101F108034A6852684A6009
:104910009A4201D152684A60D168016070475020C4
:1049200080F31188BFF34F8FBFF36F8FFEE7000056
:1049300094000020D40D00207CB504460BA00D4649
:10494000006800900AA002220068019069460948A8
:10495000FFF731F9AAB221460648FFF72CF90222E7
:1049600001A90448FFF727F97CBD000003FC000003
:10497000FC030000340B002030B50C46050014D0B9
:10498000022C12D90A48A11E02882846FFF774F9A2
:104990002919C2B211F8023C9A4206D111F8011C41
:1049A000B1EB102F01D1012030BD002030BD00003F
:1049B0005400002030B50C4605000ED0022C0CD956
:1049C000601E81B2FF222846FFF76CF9291911F801
:1049D000011C814201D1012030BD002030BD00000A
:1049E0001CB537480168374A914207D1502080F3FF
:1049F0001188BFF34F8FBFF36F8FFEE70068314917
:104A0000491E884207D1502080F31188BFF34F8F91
:104A1000BFF36F8FFEE72C4908780190FF200870E4
:104A200008788DF800009DF800009DF8002000F047
:104A3000F000904207D0502080F31188BFF34F8FD1
:104A4000BFF36F8FFEE79DF80000204B00F0500091
:104A500018700720986005E09DF8002052008DF83E
:104A60000020401E9DF800201206F5D4986003280F
:104A700007D0502080F31188BFF34F8FBFF36F8FA3
:104A8000FEE74FF440709860019808700C482030A1
:104A9000016841F470010160016841F070410160FA
:104AA000FFF786FE00205860FBF7AEFB0848016860
:104AB00041F040410160FBF793FB00201CBD00006A
:104AC00000ED00E071C20F4100E400E0E8000020CA
:104AD00034EF00E010B5502080F31188BFF34F8F02
:104AE000BFF36F8F00F078F818B104494FF0805091
:104AF0000860002080F3118810BD000004ED00E084
:104B00002DE9FF5F8346DDE90E87994616468A4602
:104B10009000FFF7E1FB05001CD05420FFF7DCFB01
:104B2000040014D00020256384F85100CDE9024030
:104B3000CDE900874B46324651465846FFF73AFBCF
:104B40002046FFF75FFA012004B0BDE8F09F284639
:104B5000FFF700FE4FF0FF30F6E7F0B585B0DDE976
:104B60000B640A9DA6B1DCB1542700972663022688
:104B700084F85160002604AFCDE90246CDE9005724
:104B8000FFF718FB2046FFF73DFA049805B0F0BD8B
:104B9000502080F31188BFF34F8FBFF36F8FFEE774
:104BA000502080F31188BFF34F8FBFF36F8FFEE764
:104BB0000548C16919B1806B18B100207047012008
:104BC00070470220704700009400002001484069AF
:104BD00070470000940000202DE9F0412E4C002782
:104BE000A06B40B1206A401C2062606A00B10127BE
:104BF0003846BDE8F0816669761C666113D160684D
:104C0000006838B1502080F31188BFF34F8FBFF395
:104C10006F8FFEE76068A1686160A060A06A401CB9
:104C2000A062FFF735FB206BDFF87080864209D366
:104C30006068006880B16068C068C568686886425E
:104C40000DD220632068C06A00EB800158F8210073
:104C50000128CAD90127C8E74FF0FF30F1E7281D26
:104C6000FFF7F4FCA86A18B105F11800FFF7EEFC95
:104C7000E86A0121A26981401143A16100EB800132
:104C800008EB8100291DFFF725FDE86A2168C96A44
:104C90008842CDD30127CBE794000020D40D00201B
:104CA0002DE9F0472C4D00242746A86B38B1FFF7BB
:104CB0001DFDA86B401EA863A86B40B146E05020C4
:104CC00080F31188BFF34F8FBFF36F8FFEE7296921
:104CD000224E0120D1B3A6F1B40980463068E8B174
:104CE000F068C46804F11800FFF7B0FC201DFFF75E
:104CF000ADFCE06AAA6908FA00F11143A96100EB72
:104D0000800109EB8100211DFFF7E4FCE06A2968BE
:104D1000C96A8842E2D3C5F82480DFE70CB1FFF707
:104D2000B7FA2C6A44B14646FFF756FF00B16E62EF
:104D3000641EF9D100202862686A38B10849012749
:104D400038070860BFF34F8FBFF36F8FFFF7EEFC9C
:104D50003846BDE8F087000094000020880E00204F
:104D600004ED00E06B806B036C001A021B181C1032
:104D70001D026A2000000000005EBCE2613FDD838E
:104D8000C29C7E20A3FD1F419DC3217FFCA2401E2B
:104D90005F01E3BD3E6082DC237D9FC1421CFEA01B
:104DA000E1BF5D0380DE3C62BEE0025CDF81633D0B
:104DB0007C22C09E1D43A1FF4618FAA427799BC5FB
:104DC00084DA3866E5BB5907DB856739BAE40658EB
:104DD0001947A5FB7826C49A653BD987045AB8E6DB
:104DE000A7F91B45C6987A24F8A6441A99C7257BCB
:104DF0003A6486D85B05E7B98CD2306EEDB3510FBB
:104E00004E10F2AC2F7193CD114FADF3702ECC92AA
:104E1000D38D6F31B2EC0E50AFF1134DCE90722C9A
:104E20006D33D18F0C52B0EE326C8ED0530DEFB18A
:104E3000F0AE4C1291CF2D73CA947628ABF517497A
:104E40000856B4EA6937D58B5709EBB536688AD46A
:104E500095CB2977F4AA4816E9B7550B88D6346A5A
:104E60002B7597C94A14F6A8742AC896154BA9F74A
:104E7000B6E80A54D7896B350000891112239B329A
:104E80002446AD573665BF74488CC19D5AAFD3BE1A
:104E90006CCAE5DB7EE9F7F88110080193331A222A
:104EA000A5562C47B7753E64C99C408DDBBF52AEFA
:104EB000EDDA64CBFFF976E802218B30100299130A
:104EC0002667AF763444BD554AADC3BC588ED19FDA
:104ED0006EEBE7FA7CC8F5D983310A2091121803EA
:104EE000A7772E66B5543C45CBBD42ACD99E508FBA
:104EF000EFFB66EAFDD874C904428D5316619F70BA
:104F00002004A9153227BB364CCEC5DF5EEDD7FC99
:104F10006888E1997AABF3BA85520C4397711E60A9
:104F2000A1142805B3373A26CDDE44CFDFFD56EC79
:104F3000E9986089FBBB72AA06638F7214409D5189
:104F40002225AB343006B9174EEFC7FE5CCCD5DD59
:104F50006AA9E3B8788AF19B87730E6295501C4169
:104F6000A3352A24B1163807CFFF46EEDDDC54CD39
:104F7000EBB962A8F99A708B088481951AA793B649
:104F80002CC2A5D33EE1B7F04008C919522BDB3A39
:104F9000644EED5F766DFF7C899400859BB712A609
:104FA000ADD224C3BFF136E0C1184809D33B5A2A19
:104FB000E55E6C4FF77D7E6C0AA583B418869197E9
:104FC0002EE3A7F23CC0B5D14229CB38500AD91BF9
:104FD000666FEF7E744CFD5D8BB502A499961087C9
:104FE000AFF326E2BDD034C1C3394A28D11A580BD9
:104FF000E77F6E6EF55C7C4D0CC685D71EE597F499
:105000002880A1913AA3B3B2444ACD5B5669DF78B8
:10501000600CE91D722FFB3E8DD604C79FF516E488
:10502000A9902081BBB332A2C55A4C4BD7795E6898
:10503000E11C680DF33F7A2E0EE787F61CC495D568
:105040002AA1A3B03882B193466BCF7A5448DD5978
:10505000622DEB3C700EF91F8FF706E69DD414C548
:10506000ABB122A0B9923083C77B4E6AD5585C4958
:10507000E33D6A2CF11E780FA5000000000000003F
:105080000000000000000000000000000000000020
:1050900000000000D0500008DD43000802000000BE
:1050A00000000000000100000000000000000000FF
:1050B0000006101600061016000000000000000098
:1050C00001020304060708090000000001020304AE
:1050D000746573744F664D6F6368615F5461736B81
:1050E000000000000451000800000020F40000004F
:1050F000063C0008F8510008F4000020D44D0000E0
:10510000163C000800000000000000000000000045
:10511000000000000000000000000000000000008F
:10512000000000000000000000000000000000007F
:10513000000000000000000000000000000000006F
:105140000000000000000000FF0000000000000060
:105150000000000000000000FFFF00000000000051
:10516000000000000000000000000000000000003F
:10517000000000000000000000000000000000002F
:10518000000000000000000001000000100000000E
:10519000000000000024F4000000000000000000F7
:1051A00000000000000000000000000000000000FF
:1051B00000000000000000000000000000000000EF
:1051C00000000000000000000000000000000000DF
:1051D00000000000000000000000000000000000CF
:1051E00000000000000000000000000000000000BF
:0851F000AAAAAAAA000000000F
:04000005080001AD41
:00000001FF
